{
	"data": {
		"bytecode": {
			"linkReferences": {},
			"object": "60806040526110e0600855620100006009557d040000000000000000000000000000000000000000000000000000000000600a556000601260006101000a81548160ff0219169083151502179055503480156200005b57600080fd5b50336000806101000a81548173ffffffffffffffffffffffffffffffffffffffff021916908373ffffffffffffffffffffffffffffffffffffffff1602179055506000809054906101000a900473ffffffffffffffffffffffffffffffffffffffff1673ffffffffffffffffffffffffffffffffffffffff163373ffffffffffffffffffffffffffffffffffffffff16141515620000f857600080fd5b6040805190810160405280600481526020017f4d415a45000000000000000000000000000000000000000000000000000000008152506002908051906020019062000145929190620006ed565b506040805190810160405280600481526020017f4d415a45000000000000000000000000000000000000000000000000000000008152506003908051906020019062000193929190620006ed565b506006600460006101000a81548160ff021916908360ff160217905550600460009054906101000a900460ff1660ff16600a0a6301406f4002600581905550601260009054906101000a900460ff1615620001ed57600080fd5b6001601260006101000a81548160ff02191690831515021790555060006014819055506000600d819055506200023e6002600554620002736401000000000262001e37179091906401000000009004565b600e81905550600a54600b81905550436006819055506200026d62000299640100000000026401000000009004565b6200079c565b600080821115156200028457600080fd5b81838115156200029057fe5b04905092915050565b600e54620002d9620002b9620003a4640100000000026401000000009004565b601454620003ec6401000000000262001e5b179091906401000000009004565b118015620002e957506027600d54105b15620002fc576001600d5401600d819055505b620003296001600d540160020a600554620002736401000000000262001e37179091906401000000009004565b60055403600e81905550620003596001600754620003ec6401000000000262001e5b179091906401000000009004565b60078190555060006008546007548115156200037157fe5b06141562000393576200039262000409640100000000026401000000009004565b5b6001430340600c8160001916905550565b6000620003e7600d5460020a600460009054906101000a900460ff1660ff16600a0a61032002620002736401000000000262001e37179091906401000000009004565b905090565b600081830190508281101515156200040357600080fd5b92915050565b6000806000806000806000600654430396506008549550600a86029450848710156200053a576200047587620004586064886200067e64010000000002620020d9179091906401000000009004565b620002736401000000000262001e37179091906401000000009004565b9350620004bf6103e8620004a2606487620006b26401000000000262001f2c179091906401000000009004565b620006cf640100000000026200210a179091906401000000009004565b92506200052e6200050e84620004f16107d0600b54620002736401000000000262001e37179091906401000000009004565b6200067e64010000000002620020d9179091906401000000009004565b600b54620006b26401000000000262001f2c179091906401000000009004565b600b8190555062000640565b62000580856200056360648a6200067e64010000000002620020d9179091906401000000009004565b620002736401000000000262001e37179091906401000000009004565b9150620005ca6103e8620005ad606485620006b26401000000000262001f2c179091906401000000009004565b620006cf640100000000026200210a179091906401000000009004565b9050620006396200061982620005fc6107d0600b54620002736401000000000262001e37179091906401000000009004565b6200067e64010000000002620020d9179091906401000000009004565b600b54620003ec6401000000000262001e5b179091906401000000009004565b600b819055505b43600681905550600954600b5410156200065e57600954600b819055505b600a54600b5411156200067557600a54600b819055505b50505050505050565b600081830290506000831480620006a057508183828115156200069d57fe5b04145b1515620006ac57600080fd5b92915050565b6000828211151515620006c457600080fd5b818303905092915050565b600081831115620006e357819050620006e7565b8290505b92915050565b828054600181600116156101000203166002900490600052602060002090601f016020900481019282601f106200073057805160ff191683800117855562000761565b8280016001018555821562000761579182015b828111156200076057825182559160200191906001019062000743565b5b50905062000770919062000774565b5090565b6200079991905b80821115620007955760008160009055506001016200077b565b5090565b90565b61215280620007ac6000396000f3006080604052600436106101c2576000357c0100000000000000000000000000000000000000000000000000000000900463ffffffff16806306fdde03146101c7578063095ea7b314610257578063163aa00d146102bc57806317da485f146102e75780631801fbe51461031257806318160ddd1461036557806323b872dd146103905780632d38bf7a14610415578063313ce5671461044057806332e99708146104715780633eaaf86b1461049c578063490203a7146104c75780634ef37628146104f25780634fa972e1146105255780636de9f32b146105505780636fd396d61461057b57806370a08231146105d257806379ba50971461062957806381269a5614610640578063829965cc146106ab57806387a2a9d6146106d65780638a769d35146107015780638ae0368b1461072c5780638da5cb5b1461075f57806395d89b41146107b657806397566aa014610846578063a9059cbb146108ab578063b5ade81b14610910578063bafedcaa1461093b578063cae9ca5114610966578063cb9ae70714610a11578063d4ee1d9014610a3c578063dc39d06d14610a93578063dc6e9cf914610af8578063dd62ed3e14610b23578063f2fde38b14610b9a575b600080fd5b3480156101d357600080fd5b506101dc610bdd565b6040518080602001828103825283818151815260200191508051906020019080838360005b8381101561021c578082015181840152602081019050610201565b50505050905090810190601f1680156102495780820380516001836020036101000a031916815260200191505b509250505060405180910390f35b34801561026357600080fd5b506102a2600480360381019080803573ffffffffffffffffffffffffffffffffffffffff16906020019092919080359060200190929190505050610c7b565b604051808215151515815260200191505060405180910390f35b3480156102c857600080fd5b506102d1610d6d565b6040518082815260200191505060405180910390f35b3480156102f357600080fd5b506102fc610d73565b6040518082815260200191505060405180910390f35b34801561031e57600080fd5b5061034b600480360381019080803590602001909291908035600019169060200190929190505050610d91565b604051808215151515815260200191505060405180910390f35b34801561037157600080fd5b5061037a611021565b6040518082815260200191505060405180910390f35b34801561039c57600080fd5b506103fb600480360381019080803573ffffffffffffffffffffffffffffffffffffffff169060200190929190803573ffffffffffffffffffffffffffffffffffffffff1690602001909291908035906020019092919050505061106c565b604051808215151515815260200191505060405180910390f35b34801561042157600080fd5b5061042a611317565b6040518082815260200191505060405180910390f35b34801561044c57600080fd5b5061045561131d565b604051808260ff1660ff16815260200191505060405180910390f35b34801561047d57600080fd5b50610486611330565b6040518082815260200191505060405180910390f35b3480156104a857600080fd5b506104b161133a565b6040518082815260200191505060405180910390f35b3480156104d357600080fd5b506104dc611340565b6040518082815260200191505060405180910390f35b3480156104fe57600080fd5b50610507611378565b60405180826000191660001916815260200191505060405180910390f35b34801561053157600080fd5b5061053a611382565b6040518082815260200191505060405180910390f35b34801561055c57600080fd5b50610565611388565b6040518082815260200191505060405180910390f35b34801561058757600080fd5b5061059061138e565b604051808273ffffffffffffffffffffffffffffffffffffffff1673ffffffffffffffffffffffffffffffffffffffff16815260200191505060405180910390f35b3480156105de57600080fd5b50610613600480360381019080803573ffffffffffffffffffffffffffffffffffffffff1690602001909291905050506113b4565b6040518082815260200191505060405180910390f35b34801561063557600080fd5b5061063e6113fd565b005b34801561064c57600080fd5b5061069160048036038101908080359060200190929190803560001916906020019092919080356000191690602001909291908035906020019092919050505061159c565b604051808215151515815260200191505060405180910390f35b3480156106b757600080fd5b506106c0611631565b6040518082815260200191505060405180910390f35b3480156106e257600080fd5b506106eb611637565b6040518082815260200191505060405180910390f35b34801561070d57600080fd5b5061071661163d565b6040518082815260200191505060405180910390f35b34801561073857600080fd5b50610741611643565b60405180826000191660001916815260200191505060405180910390f35b34801561076b57600080fd5b50610774611649565b604051808273ffffffffffffffffffffffffffffffffffffffff1673ffffffffffffffffffffffffffffffffffffffff16815260200191505060405180910390f35b3480156107c257600080fd5b506107cb61166e565b6040518080602001828103825283818151815260200191508051906020019080838360005b8381101561080b5780820151818401526020810190506107f0565b50505050905090810190601f1680156108385780820380516001836020036101000a031916815260200191505b509250505060405180910390f35b34801561085257600080fd5b5061088d600480360381019080803590602001909291908035600019169060200190929190803560001916906020019092919050505061170c565b60405180826000191660001916815260200191505060405180910390f35b3480156108b757600080fd5b506108f6600480360381019080803573ffffffffffffffffffffffffffffffffffffffff16906020019092919080359060200190929190505050611785565b604051808215151515815260200191505060405180910390f35b34801561091c57600080fd5b50610925611920565b6040518082815260200191505060405180910390f35b34801561094757600080fd5b50610950611926565b6040518082815260200191505060405180910390f35b34801561097257600080fd5b506109f7600480360381019080803573ffffffffffffffffffffffffffffffffffffffff16906020019092919080359060200190929190803590602001908201803590602001908080601f016020809104026020016040519081016040528093929190818152602001838380828437820191505050505050919291929050505061192c565b604051808215151515815260200191505060405180910390f35b348015610a1d57600080fd5b50610a26611b7b565b6040518082815260200191505060405180910390f35b348015610a4857600080fd5b50610a51611b81565b604051808273ffffffffffffffffffffffffffffffffffffffff1673ffffffffffffffffffffffffffffffffffffffff16815260200191505060405180910390f35b348015610a9f57600080fd5b50610ade600480360381019080803573ffffffffffffffffffffffffffffffffffffffff16906020019092919080359060200190929190505050611ba7565b604051808215151515815260200191505060405180910390f35b348015610b0457600080fd5b50610b0d611d0b565b6040518082815260200191505060405180910390f35b348015610b2f57600080fd5b50610b84600480360381019080803573ffffffffffffffffffffffffffffffffffffffff169060200190929190803573ffffffffffffffffffffffffffffffffffffffff169060200190929190505050611d11565b6040518082815260200191505060405180910390f35b348015610ba657600080fd5b50610bdb600480360381019080803573ffffffffffffffffffffffffffffffffffffffff169060200190929190505050611d98565b005b60038054600181600116156101000203166002900480601f016020809104026020016040519081016040528092919081815260200182805460018160011615610100020316600290048015610c735780601f10610c4857610100808354040283529160200191610c73565b820191906000526020600020905b815481529060010190602001808311610c5657829003601f168201915b505050505081565b600081601660003373ffffffffffffffffffffffffffffffffffffffff1673ffffffffffffffffffffffffffffffffffffffff16815260200190815260200160002060008573ffffffffffffffffffffffffffffffffffffffff1673ffffffffffffffffffffffffffffffffffffffff168152602001908152602001600020819055508273ffffffffffffffffffffffffffffffffffffffff163373ffffffffffffffffffffffffffffffffffffffff167f8c5be1e5ebec7d5bd14f71427d1e84f3dd0314c0f7b2291e5b200ac8c7c3b925846040518082815260200191505060405180910390a36001905092915050565b60115481565b6000610d8c600b54600a54611e3790919063ffffffff16565b905090565b600080600080600c5433876040518084600019166000191681526020018373ffffffffffffffffffffffffffffffffffffffff1673ffffffffffffffffffffffffffffffffffffffff166c0100000000000000000000000002815260140182815260200193505050506040518091039020925084600019168360001916141515610e1a57600080fd5b600b5483600190041115610e2d57600080fd5b60136000600c54600019166000191681526020019081526020016000205491508260136000600c5460001916600019168152602001908152602001600020816000191690555060006001028260001916141515610e8957600080fd5b610e91611340565b9050610ee581601560003373ffffffffffffffffffffffffffffffffffffffff1673ffffffffffffffffffffffffffffffffffffffff16815260200190815260200160002054611e5b90919063ffffffff16565b601560003373ffffffffffffffffffffffffffffffffffffffff1673ffffffffffffffffffffffffffffffffffffffff16815260200190815260200160002081905550610f3d81601454611e5b90919063ffffffff16565b601481905550600e5460145411151515610f5357fe5b33600f60006101000a81548173ffffffffffffffffffffffffffffffffffffffff021916908373ffffffffffffffffffffffffffffffffffffffff1602179055508060108190555043601181905550610faa611e77565b3373ffffffffffffffffffffffffffffffffffffffff167fcf6fbb9dcea7d07263ab4f5c3a92f53af33dffc421d9d121e1c74b307e68189d82600754600c54604051808481526020018381526020018260001916600019168152602001935050505060405180910390a26001935050505092915050565b6000601560008073ffffffffffffffffffffffffffffffffffffffff1673ffffffffffffffffffffffffffffffffffffffff1681526020019081526020016000205460055403905090565b60006110c082601560008773ffffffffffffffffffffffffffffffffffffffff1673ffffffffffffffffffffffffffffffffffffffff16815260200190815260200160002054611f2c90919063ffffffff16565b601560008673ffffffffffffffffffffffffffffffffffffffff1673ffffffffffffffffffffffffffffffffffffffff1681526020019081526020016000208190555061119282601660008773ffffffffffffffffffffffffffffffffffffffff1673ffffffffffffffffffffffffffffffffffffffff16815260200190815260200160002060003373ffffffffffffffffffffffffffffffffffffffff1673ffffffffffffffffffffffffffffffffffffffff16815260200190815260200160002054611f2c90919063ffffffff16565b601660008673ffffffffffffffffffffffffffffffffffffffff1673ffffffffffffffffffffffffffffffffffffffff16815260200190815260200160002060003373ffffffffffffffffffffffffffffffffffffffff1673ffffffffffffffffffffffffffffffffffffffff1681526020019081526020016000208190555061126482601560008673ffffffffffffffffffffffffffffffffffffffff1673ffffffffffffffffffffffffffffffffffffffff16815260200190815260200160002054611e5b90919063ffffffff16565b601560008573ffffffffffffffffffffffffffffffffffffffff1673ffffffffffffffffffffffffffffffffffffffff168152602001908152602001600020819055508273ffffffffffffffffffffffffffffffffffffffff168473ffffffffffffffffffffffffffffffffffffffff167fddf252ad1be2c89b69c2b068fc378daa952ba7f163c4a11628f55a4df523b3ef846040518082815260200191505060405180910390a3600190509392505050565b600d5481565b600460009054906101000a900460ff1681565b6000600b54905090565b60055481565b6000611373600d5460020a600460009054906101000a900460ff1660ff16600a0a61032002611e3790919063ffffffff16565b905090565b6000600c54905090565b600e5481565b60145481565b600f60009054906101000a900473ffffffffffffffffffffffffffffffffffffffff1681565b6000601560008373ffffffffffffffffffffffffffffffffffffffff1673ffffffffffffffffffffffffffffffffffffffff168152602001908152602001600020549050919050565b600160009054906101000a900473ffffffffffffffffffffffffffffffffffffffff1673ffffffffffffffffffffffffffffffffffffffff163373ffffffffffffffffffffffffffffffffffffffff1614151561145957600080fd5b600160009054906101000a900473ffffffffffffffffffffffffffffffffffffffff1673ffffffffffffffffffffffffffffffffffffffff166000809054906101000a900473ffffffffffffffffffffffffffffffffffffffff1673ffffffffffffffffffffffffffffffffffffffff167f8be0079c531659141344cd1fd0a4f28419497f9722a3daafe3b4186f6b6457e060405160405180910390a3600160009054906101000a900473ffffffffffffffffffffffffffffffffffffffff166000806101000a81548173ffffffffffffffffffffffffffffffffffffffff021916908373ffffffffffffffffffffffffffffffffffffffff1602179055506000600160006101000a81548173ffffffffffffffffffffffffffffffffffffffff021916908373ffffffffffffffffffffffffffffffffffffffff160217905550565b6000808333876040518084600019166000191681526020018373ffffffffffffffffffffffffffffffffffffffff1673ffffffffffffffffffffffffffffffffffffffff166c01000000000000000000000000028152601401828152602001935050505060405180910390209050828160019004111561161b57600080fd5b8460001916816000191614915050949350505050565b60075481565b600a5481565b600b5481565b600c5481565b6000809054906101000a900473ffffffffffffffffffffffffffffffffffffffff1681565b60028054600181600116156101000203166002900480601f0160208091040260200160405190810160405280929190818152602001828054600181600116156101000203166002900480156117045780601f106116d957610100808354040283529160200191611704565b820191906000526020600020905b8154815290600101906020018083116116e757829003601f168201915b505050505081565b6000808233866040518084600019166000191681526020018373ffffffffffffffffffffffffffffffffffffffff1673ffffffffffffffffffffffffffffffffffffffff166c01000000000000000000000000028152601401828152602001935050505060405180910390209050809150509392505050565b60006117d982601560003373ffffffffffffffffffffffffffffffffffffffff1673ffffffffffffffffffffffffffffffffffffffff16815260200190815260200160002054611f2c90919063ffffffff16565b601560003373ffffffffffffffffffffffffffffffffffffffff1673ffffffffffffffffffffffffffffffffffffffff1681526020019081526020016000208190555061186e82601560008673ffffffffffffffffffffffffffffffffffffffff1673ffffffffffffffffffffffffffffffffffffffff16815260200190815260200160002054611e5b90919063ffffffff16565b601560008573ffffffffffffffffffffffffffffffffffffffff1673ffffffffffffffffffffffffffffffffffffffff168152602001908152602001600020819055508273ffffffffffffffffffffffffffffffffffffffff163373ffffffffffffffffffffffffffffffffffffffff167fddf252ad1be2c89b69c2b068fc378daa952ba7f163c4a11628f55a4df523b3ef846040518082815260200191505060405180910390a36001905092915050565b60085481565b60105481565b600082601660003373ffffffffffffffffffffffffffffffffffffffff1673ffffffffffffffffffffffffffffffffffffffff16815260200190815260200160002060008673ffffffffffffffffffffffffffffffffffffffff1673ffffffffffffffffffffffffffffffffffffffff168152602001908152602001600020819055508373ffffffffffffffffffffffffffffffffffffffff163373ffffffffffffffffffffffffffffffffffffffff167f8c5be1e5ebec7d5bd14f71427d1e84f3dd0314c0f7b2291e5b200ac8c7c3b925856040518082815260200191505060405180910390a38373ffffffffffffffffffffffffffffffffffffffff16638f4ffcb1338530866040518563ffffffff167c0100000000000000000000000000000000000000000000000000000000028152600401808573ffffffffffffffffffffffffffffffffffffffff1673ffffffffffffffffffffffffffffffffffffffff1681526020018481526020018373ffffffffffffffffffffffffffffffffffffffff1673ffffffffffffffffffffffffffffffffffffffff16815260200180602001828103825283818151815260200191508051906020019080838360005b83811015611b09578082015181840152602081019050611aee565b50505050905090810190601f168015611b365780820380516001836020036101000a031916815260200191505b5095505050505050600060405180830381600087803b158015611b5857600080fd5b505af1158015611b6c573d6000803e3d6000fd5b50505050600190509392505050565b60065481565b600160009054906101000a900473ffffffffffffffffffffffffffffffffffffffff1681565b60008060009054906101000a900473ffffffffffffffffffffffffffffffffffffffff1673ffffffffffffffffffffffffffffffffffffffff163373ffffffffffffffffffffffffffffffffffffffff16141515611c0457600080fd5b8273ffffffffffffffffffffffffffffffffffffffff1663a9059cbb6000809054906101000a900473ffffffffffffffffffffffffffffffffffffffff16846040518363ffffffff167c0100000000000000000000000000000000000000000000000000000000028152600401808373ffffffffffffffffffffffffffffffffffffffff1673ffffffffffffffffffffffffffffffffffffffff16815260200182815260200192505050602060405180830381600087803b158015611cc857600080fd5b505af1158015611cdc573d6000803e3d6000fd5b505050506040513d6020811015611cf257600080fd5b8101908080519060200190929190505050905092915050565b60095481565b6000601660008473ffffffffffffffffffffffffffffffffffffffff1673ffffffffffffffffffffffffffffffffffffffff16815260200190815260200160002060008373ffffffffffffffffffffffffffffffffffffffff1673ffffffffffffffffffffffffffffffffffffffff16815260200190815260200160002054905092915050565b6000809054906101000a900473ffffffffffffffffffffffffffffffffffffffff1673ffffffffffffffffffffffffffffffffffffffff163373ffffffffffffffffffffffffffffffffffffffff16141515611df357600080fd5b80600160006101000a81548173ffffffffffffffffffffffffffffffffffffffff021916908373ffffffffffffffffffffffffffffffffffffffff16021790555050565b60008082111515611e4757600080fd5b8183811515611e5257fe5b04905092915050565b60008183019050828110151515611e7157600080fd5b92915050565b600e54611e96611e85611340565b601454611e5b90919063ffffffff16565b118015611ea557506027600d54105b15611eb7576001600d5401600d819055505b611ed46001600d540160020a600554611e3790919063ffffffff16565b60055403600e81905550611ef46001600754611e5b90919063ffffffff16565b6007819055506000600854600754811515611f0b57fe5b061415611f1b57611f1a611f48565b5b6001430340600c8160001916905550565b6000828211151515611f3d57600080fd5b818303905092915050565b6000806000806000806000600654430396506008549550600a860294508487101561200757611f9387611f856064886120d990919063ffffffff16565b611e3790919063ffffffff16565b9350611fbd6103e8611faf606487611f2c90919063ffffffff16565b61210a90919063ffffffff16565b9250611ffc611feb84611fdd6107d0600b54611e3790919063ffffffff16565b6120d990919063ffffffff16565b600b54611f2c90919063ffffffff16565b600b8190555061209d565b61202d8561201f60648a6120d990919063ffffffff16565b611e3790919063ffffffff16565b91506120576103e8612049606485611f2c90919063ffffffff16565b61210a90919063ffffffff16565b9050612096612085826120776107d0600b54611e3790919063ffffffff16565b6120d990919063ffffffff16565b600b54611e5b90919063ffffffff16565b600b819055505b43600681905550600954600b5410156120ba57600954600b819055505b600a54600b5411156120d057600a54600b819055505b50505050505050565b6000818302905060008314806120f957508183828115156120f657fe5b04145b151561210457600080fd5b92915050565b60008183111561211c57819050612120565b8290505b929150505600a165627a7a72305820d06f677c0e46363bec01e5acf8ec631cde32daf40f4edc16e295338688d1fa4f0029",
			"opcodes": "PUSH1 0x80 PUSH1 0x40 MSTORE PUSH2 0x10E0 PUSH1 0x8 SSTORE PUSH3 0x10000 PUSH1 0x9 SSTORE PUSH30 0x40000000000000000000000000000000000000000000000000000000000 PUSH1 0xA SSTORE PUSH1 0x0 PUSH1 0x12 PUSH1 0x0 PUSH2 0x100 EXP DUP2 SLOAD DUP2 PUSH1 0xFF MUL NOT AND SWAP1 DUP4 ISZERO ISZERO MUL OR SWAP1 SSTORE POP CALLVALUE DUP1 ISZERO PUSH3 0x5B JUMPI PUSH1 0x0 DUP1 REVERT JUMPDEST POP CALLER PUSH1 0x0 DUP1 PUSH2 0x100 EXP DUP2 SLOAD DUP2 PUSH20 0xFFFFFFFFFFFFFFFFFFFFFFFFFFFFFFFFFFFFFFFF MUL NOT AND SWAP1 DUP4 PUSH20 0xFFFFFFFFFFFFFFFFFFFFFFFFFFFFFFFFFFFFFFFF AND MUL OR SWAP1 SSTORE POP PUSH1 0x0 DUP1 SWAP1 SLOAD SWAP1 PUSH2 0x100 EXP SWAP1 DIV PUSH20 0xFFFFFFFFFFFFFFFFFFFFFFFFFFFFFFFFFFFFFFFF AND PUSH20 0xFFFFFFFFFFFFFFFFFFFFFFFFFFFFFFFFFFFFFFFF AND CALLER PUSH20 0xFFFFFFFFFFFFFFFFFFFFFFFFFFFFFFFFFFFFFFFF AND EQ ISZERO ISZERO PUSH3 0xF8 JUMPI PUSH1 0x0 DUP1 REVERT JUMPDEST PUSH1 0x40 DUP1 MLOAD SWAP1 DUP2 ADD PUSH1 0x40 MSTORE DUP1 PUSH1 0x4 DUP2 MSTORE PUSH1 0x20 ADD PUSH32 0x4D415A4500000000000000000000000000000000000000000000000000000000 DUP2 MSTORE POP PUSH1 0x2 SWAP1 DUP1 MLOAD SWAP1 PUSH1 0x20 ADD SWAP1 PUSH3 0x145 SWAP3 SWAP2 SWAP1 PUSH3 0x6ED JUMP JUMPDEST POP PUSH1 0x40 DUP1 MLOAD SWAP1 DUP2 ADD PUSH1 0x40 MSTORE DUP1 PUSH1 0x4 DUP2 MSTORE PUSH1 0x20 ADD PUSH32 0x4D415A4500000000000000000000000000000000000000000000000000000000 DUP2 MSTORE POP PUSH1 0x3 SWAP1 DUP1 MLOAD SWAP1 PUSH1 0x20 ADD SWAP1 PUSH3 0x193 SWAP3 SWAP2 SWAP1 PUSH3 0x6ED JUMP JUMPDEST POP PUSH1 0x6 PUSH1 0x4 PUSH1 0x0 PUSH2 0x100 EXP DUP2 SLOAD DUP2 PUSH1 0xFF MUL NOT AND SWAP1 DUP4 PUSH1 0xFF AND MUL OR SWAP1 SSTORE POP PUSH1 0x4 PUSH1 0x0 SWAP1 SLOAD SWAP1 PUSH2 0x100 EXP SWAP1 DIV PUSH1 0xFF AND PUSH1 0xFF AND PUSH1 0xA EXP PUSH4 0x1406F40 MUL PUSH1 0x5 DUP2 SWAP1 SSTORE POP PUSH1 0x12 PUSH1 0x0 SWAP1 SLOAD SWAP1 PUSH2 0x100 EXP SWAP1 DIV PUSH1 0xFF AND ISZERO PUSH3 0x1ED JUMPI PUSH1 0x0 DUP1 REVERT JUMPDEST PUSH1 0x1 PUSH1 0x12 PUSH1 0x0 PUSH2 0x100 EXP DUP2 SLOAD DUP2 PUSH1 0xFF MUL NOT AND SWAP1 DUP4 ISZERO ISZERO MUL OR SWAP1 SSTORE POP PUSH1 0x0 PUSH1 0x14 DUP2 SWAP1 SSTORE POP PUSH1 0x0 PUSH1 0xD DUP2 SWAP1 SSTORE POP PUSH3 0x23E PUSH1 0x2 PUSH1 0x5 SLOAD PUSH3 0x273 PUSH5 0x100000000 MUL PUSH3 0x1E37 OR SWAP1 SWAP2 SWAP1 PUSH5 0x100000000 SWAP1 DIV JUMP JUMPDEST PUSH1 0xE DUP2 SWAP1 SSTORE POP PUSH1 0xA SLOAD PUSH1 0xB DUP2 SWAP1 SSTORE POP NUMBER PUSH1 0x6 DUP2 SWAP1 SSTORE POP PUSH3 0x26D PUSH3 0x299 PUSH5 0x100000000 MUL PUSH5 0x100000000 SWAP1 DIV JUMP JUMPDEST PUSH3 0x79C JUMP JUMPDEST PUSH1 0x0 DUP1 DUP3 GT ISZERO ISZERO PUSH3 0x284 JUMPI PUSH1 0x0 DUP1 REVERT JUMPDEST DUP2 DUP4 DUP2 ISZERO ISZERO PUSH3 0x290 JUMPI INVALID JUMPDEST DIV SWAP1 POP SWAP3 SWAP2 POP POP JUMP JUMPDEST PUSH1 0xE SLOAD PUSH3 0x2D9 PUSH3 0x2B9 PUSH3 0x3A4 PUSH5 0x100000000 MUL PUSH5 0x100000000 SWAP1 DIV JUMP JUMPDEST PUSH1 0x14 SLOAD PUSH3 0x3EC PUSH5 0x100000000 MUL PUSH3 0x1E5B OR SWAP1 SWAP2 SWAP1 PUSH5 0x100000000 SWAP1 DIV JUMP JUMPDEST GT DUP1 ISZERO PUSH3 0x2E9 JUMPI POP PUSH1 0x27 PUSH1 0xD SLOAD LT JUMPDEST ISZERO PUSH3 0x2FC JUMPI PUSH1 0x1 PUSH1 0xD SLOAD ADD PUSH1 0xD DUP2 SWAP1 SSTORE POP JUMPDEST PUSH3 0x329 PUSH1 0x1 PUSH1 0xD SLOAD ADD PUSH1 0x2 EXP PUSH1 0x5 SLOAD PUSH3 0x273 PUSH5 0x100000000 MUL PUSH3 0x1E37 OR SWAP1 SWAP2 SWAP1 PUSH5 0x100000000 SWAP1 DIV JUMP JUMPDEST PUSH1 0x5 SLOAD SUB PUSH1 0xE DUP2 SWAP1 SSTORE POP PUSH3 0x359 PUSH1 0x1 PUSH1 0x7 SLOAD PUSH3 0x3EC PUSH5 0x100000000 MUL PUSH3 0x1E5B OR SWAP1 SWAP2 SWAP1 PUSH5 0x100000000 SWAP1 DIV JUMP JUMPDEST PUSH1 0x7 DUP2 SWAP1 SSTORE POP PUSH1 0x0 PUSH1 0x8 SLOAD PUSH1 0x7 SLOAD DUP2 ISZERO ISZERO PUSH3 0x371 JUMPI INVALID JUMPDEST MOD EQ ISZERO PUSH3 0x393 JUMPI PUSH3 0x392 PUSH3 0x409 PUSH5 0x100000000 MUL PUSH5 0x100000000 SWAP1 DIV JUMP JUMPDEST JUMPDEST PUSH1 0x1 NUMBER SUB BLOCKHASH PUSH1 0xC DUP2 PUSH1 0x0 NOT AND SWAP1 SSTORE POP JUMP JUMPDEST PUSH1 0x0 PUSH3 0x3E7 PUSH1 0xD SLOAD PUSH1 0x2 EXP PUSH1 0x4 PUSH1 0x0 SWAP1 SLOAD SWAP1 PUSH2 0x100 EXP SWAP1 DIV PUSH1 0xFF AND PUSH1 0xFF AND PUSH1 0xA EXP PUSH2 0x320 MUL PUSH3 0x273 PUSH5 0x100000000 MUL PUSH3 0x1E37 OR SWAP1 SWAP2 SWAP1 PUSH5 0x100000000 SWAP1 DIV JUMP JUMPDEST SWAP1 POP SWAP1 JUMP JUMPDEST PUSH1 0x0 DUP2 DUP4 ADD SWAP1 POP DUP3 DUP2 LT ISZERO ISZERO ISZERO PUSH3 0x403 JUMPI PUSH1 0x0 DUP1 REVERT JUMPDEST SWAP3 SWAP2 POP POP JUMP JUMPDEST PUSH1 0x0 DUP1 PUSH1 0x0 DUP1 PUSH1 0x0 DUP1 PUSH1 0x0 PUSH1 0x6 SLOAD NUMBER SUB SWAP7 POP PUSH1 0x8 SLOAD SWAP6 POP PUSH1 0xA DUP7 MUL SWAP5 POP DUP5 DUP8 LT ISZERO PUSH3 0x53A JUMPI PUSH3 0x475 DUP8 PUSH3 0x458 PUSH1 0x64 DUP9 PUSH3 0x67E PUSH5 0x100000000 MUL PUSH3 0x20D9 OR SWAP1 SWAP2 SWAP1 PUSH5 0x100000000 SWAP1 DIV JUMP JUMPDEST PUSH3 0x273 PUSH5 0x100000000 MUL PUSH3 0x1E37 OR SWAP1 SWAP2 SWAP1 PUSH5 0x100000000 SWAP1 DIV JUMP JUMPDEST SWAP4 POP PUSH3 0x4BF PUSH2 0x3E8 PUSH3 0x4A2 PUSH1 0x64 DUP8 PUSH3 0x6B2 PUSH5 0x100000000 MUL PUSH3 0x1F2C OR SWAP1 SWAP2 SWAP1 PUSH5 0x100000000 SWAP1 DIV JUMP JUMPDEST PUSH3 0x6CF PUSH5 0x100000000 MUL PUSH3 0x210A OR SWAP1 SWAP2 SWAP1 PUSH5 0x100000000 SWAP1 DIV JUMP JUMPDEST SWAP3 POP PUSH3 0x52E PUSH3 0x50E DUP5 PUSH3 0x4F1 PUSH2 0x7D0 PUSH1 0xB SLOAD PUSH3 0x273 PUSH5 0x100000000 MUL PUSH3 0x1E37 OR SWAP1 SWAP2 SWAP1 PUSH5 0x100000000 SWAP1 DIV JUMP JUMPDEST PUSH3 0x67E PUSH5 0x100000000 MUL PUSH3 0x20D9 OR SWAP1 SWAP2 SWAP1 PUSH5 0x100000000 SWAP1 DIV JUMP JUMPDEST PUSH1 0xB SLOAD PUSH3 0x6B2 PUSH5 0x100000000 MUL PUSH3 0x1F2C OR SWAP1 SWAP2 SWAP1 PUSH5 0x100000000 SWAP1 DIV JUMP JUMPDEST PUSH1 0xB DUP2 SWAP1 SSTORE POP PUSH3 0x640 JUMP JUMPDEST PUSH3 0x580 DUP6 PUSH3 0x563 PUSH1 0x64 DUP11 PUSH3 0x67E PUSH5 0x100000000 MUL PUSH3 0x20D9 OR SWAP1 SWAP2 SWAP1 PUSH5 0x100000000 SWAP1 DIV JUMP JUMPDEST PUSH3 0x273 PUSH5 0x100000000 MUL PUSH3 0x1E37 OR SWAP1 SWAP2 SWAP1 PUSH5 0x100000000 SWAP1 DIV JUMP JUMPDEST SWAP2 POP PUSH3 0x5CA PUSH2 0x3E8 PUSH3 0x5AD PUSH1 0x64 DUP6 PUSH3 0x6B2 PUSH5 0x100000000 MUL PUSH3 0x1F2C OR SWAP1 SWAP2 SWAP1 PUSH5 0x100000000 SWAP1 DIV JUMP JUMPDEST PUSH3 0x6CF PUSH5 0x100000000 MUL PUSH3 0x210A OR SWAP1 SWAP2 SWAP1 PUSH5 0x100000000 SWAP1 DIV JUMP JUMPDEST SWAP1 POP PUSH3 0x639 PUSH3 0x619 DUP3 PUSH3 0x5FC PUSH2 0x7D0 PUSH1 0xB SLOAD PUSH3 0x273 PUSH5 0x100000000 MUL PUSH3 0x1E37 OR SWAP1 SWAP2 SWAP1 PUSH5 0x100000000 SWAP1 DIV JUMP JUMPDEST PUSH3 0x67E PUSH5 0x100000000 MUL PUSH3 0x20D9 OR SWAP1 SWAP2 SWAP1 PUSH5 0x100000000 SWAP1 DIV JUMP JUMPDEST PUSH1 0xB SLOAD PUSH3 0x3EC PUSH5 0x100000000 MUL PUSH3 0x1E5B OR SWAP1 SWAP2 SWAP1 PUSH5 0x100000000 SWAP1 DIV JUMP JUMPDEST PUSH1 0xB DUP2 SWAP1 SSTORE POP JUMPDEST NUMBER PUSH1 0x6 DUP2 SWAP1 SSTORE POP PUSH1 0x9 SLOAD PUSH1 0xB SLOAD LT ISZERO PUSH3 0x65E JUMPI PUSH1 0x9 SLOAD PUSH1 0xB DUP2 SWAP1 SSTORE POP JUMPDEST PUSH1 0xA SLOAD PUSH1 0xB SLOAD GT ISZERO PUSH3 0x675 JUMPI PUSH1 0xA SLOAD PUSH1 0xB DUP2 SWAP1 SSTORE POP JUMPDEST POP POP POP POP POP POP POP JUMP JUMPDEST PUSH1 0x0 DUP2 DUP4 MUL SWAP1 POP PUSH1 0x0 DUP4 EQ DUP1 PUSH3 0x6A0 JUMPI POP DUP2 DUP4 DUP3 DUP2 ISZERO ISZERO PUSH3 0x69D JUMPI INVALID JUMPDEST DIV EQ JUMPDEST ISZERO ISZERO PUSH3 0x6AC JUMPI PUSH1 0x0 DUP1 REVERT JUMPDEST SWAP3 SWAP2 POP POP JUMP JUMPDEST PUSH1 0x0 DUP3 DUP3 GT ISZERO ISZERO ISZERO PUSH3 0x6C4 JUMPI PUSH1 0x0 DUP1 REVERT JUMPDEST DUP2 DUP4 SUB SWAP1 POP SWAP3 SWAP2 POP POP JUMP JUMPDEST PUSH1 0x0 DUP2 DUP4 GT ISZERO PUSH3 0x6E3 JUMPI DUP2 SWAP1 POP PUSH3 0x6E7 JUMP JUMPDEST DUP3 SWAP1 POP JUMPDEST SWAP3 SWAP2 POP POP JUMP JUMPDEST DUP3 DUP1 SLOAD PUSH1 0x1 DUP2 PUSH1 0x1 AND ISZERO PUSH2 0x100 MUL SUB AND PUSH1 0x2 SWAP1 DIV SWAP1 PUSH1 0x0 MSTORE PUSH1 0x20 PUSH1 0x0 KECCAK256 SWAP1 PUSH1 0x1F ADD PUSH1 0x20 SWAP1 DIV DUP2 ADD SWAP3 DUP3 PUSH1 0x1F LT PUSH3 0x730 JUMPI DUP1 MLOAD PUSH1 0xFF NOT AND DUP4 DUP1 ADD OR DUP6 SSTORE PUSH3 0x761 JUMP JUMPDEST DUP3 DUP1 ADD PUSH1 0x1 ADD DUP6 SSTORE DUP3 ISZERO PUSH3 0x761 JUMPI SWAP2 DUP3 ADD JUMPDEST DUP3 DUP2 GT ISZERO PUSH3 0x760 JUMPI DUP3 MLOAD DUP3 SSTORE SWAP2 PUSH1 0x20 ADD SWAP2 SWAP1 PUSH1 0x1 ADD SWAP1 PUSH3 0x743 JUMP JUMPDEST JUMPDEST POP SWAP1 POP PUSH3 0x770 SWAP2 SWAP1 PUSH3 0x774 JUMP JUMPDEST POP SWAP1 JUMP JUMPDEST PUSH3 0x799 SWAP2 SWAP1 JUMPDEST DUP1 DUP3 GT ISZERO PUSH3 0x795 JUMPI PUSH1 0x0 DUP2 PUSH1 0x0 SWAP1 SSTORE POP PUSH1 0x1 ADD PUSH3 0x77B JUMP JUMPDEST POP SWAP1 JUMP JUMPDEST SWAP1 JUMP JUMPDEST PUSH2 0x2152 DUP1 PUSH3 0x7AC PUSH1 0x0 CODECOPY PUSH1 0x0 RETURN STOP PUSH1 0x80 PUSH1 0x40 MSTORE PUSH1 0x4 CALLDATASIZE LT PUSH2 0x1C2 JUMPI PUSH1 0x0 CALLDATALOAD PUSH29 0x100000000000000000000000000000000000000000000000000000000 SWAP1 DIV PUSH4 0xFFFFFFFF AND DUP1 PUSH4 0x6FDDE03 EQ PUSH2 0x1C7 JUMPI DUP1 PUSH4 0x95EA7B3 EQ PUSH2 0x257 JUMPI DUP1 PUSH4 0x163AA00D EQ PUSH2 0x2BC JUMPI DUP1 PUSH4 0x17DA485F EQ PUSH2 0x2E7 JUMPI DUP1 PUSH4 0x1801FBE5 EQ PUSH2 0x312 JUMPI DUP1 PUSH4 0x18160DDD EQ PUSH2 0x365 JUMPI DUP1 PUSH4 0x23B872DD EQ PUSH2 0x390 JUMPI DUP1 PUSH4 0x2D38BF7A EQ PUSH2 0x415 JUMPI DUP1 PUSH4 0x313CE567 EQ PUSH2 0x440 JUMPI DUP1 PUSH4 0x32E99708 EQ PUSH2 0x471 JUMPI DUP1 PUSH4 0x3EAAF86B EQ PUSH2 0x49C JUMPI DUP1 PUSH4 0x490203A7 EQ PUSH2 0x4C7 JUMPI DUP1 PUSH4 0x4EF37628 EQ PUSH2 0x4F2 JUMPI DUP1 PUSH4 0x4FA972E1 EQ PUSH2 0x525 JUMPI DUP1 PUSH4 0x6DE9F32B EQ PUSH2 0x550 JUMPI DUP1 PUSH4 0x6FD396D6 EQ PUSH2 0x57B JUMPI DUP1 PUSH4 0x70A08231 EQ PUSH2 0x5D2 JUMPI DUP1 PUSH4 0x79BA5097 EQ PUSH2 0x629 JUMPI DUP1 PUSH4 0x81269A56 EQ PUSH2 0x640 JUMPI DUP1 PUSH4 0x829965CC EQ PUSH2 0x6AB JUMPI DUP1 PUSH4 0x87A2A9D6 EQ PUSH2 0x6D6 JUMPI DUP1 PUSH4 0x8A769D35 EQ PUSH2 0x701 JUMPI DUP1 PUSH4 0x8AE0368B EQ PUSH2 0x72C JUMPI DUP1 PUSH4 0x8DA5CB5B EQ PUSH2 0x75F JUMPI DUP1 PUSH4 0x95D89B41 EQ PUSH2 0x7B6 JUMPI DUP1 PUSH4 0x97566AA0 EQ PUSH2 0x846 JUMPI DUP1 PUSH4 0xA9059CBB EQ PUSH2 0x8AB JUMPI DUP1 PUSH4 0xB5ADE81B EQ PUSH2 0x910 JUMPI DUP1 PUSH4 0xBAFEDCAA EQ PUSH2 0x93B JUMPI DUP1 PUSH4 0xCAE9CA51 EQ PUSH2 0x966 JUMPI DUP1 PUSH4 0xCB9AE707 EQ PUSH2 0xA11 JUMPI DUP1 PUSH4 0xD4EE1D90 EQ PUSH2 0xA3C JUMPI DUP1 PUSH4 0xDC39D06D EQ PUSH2 0xA93 JUMPI DUP1 PUSH4 0xDC6E9CF9 EQ PUSH2 0xAF8 JUMPI DUP1 PUSH4 0xDD62ED3E EQ PUSH2 0xB23 JUMPI DUP1 PUSH4 0xF2FDE38B EQ PUSH2 0xB9A JUMPI JUMPDEST PUSH1 0x0 DUP1 REVERT JUMPDEST CALLVALUE DUP1 ISZERO PUSH2 0x1D3 JUMPI PUSH1 0x0 DUP1 REVERT JUMPDEST POP PUSH2 0x1DC PUSH2 0xBDD JUMP JUMPDEST PUSH1 0x40 MLOAD DUP1 DUP1 PUSH1 0x20 ADD DUP3 DUP2 SUB DUP3 MSTORE DUP4 DUP2 DUP2 MLOAD DUP2 MSTORE PUSH1 0x20 ADD SWAP2 POP DUP1 MLOAD SWAP1 PUSH1 0x20 ADD SWAP1 DUP1 DUP4 DUP4 PUSH1 0x0 JUMPDEST DUP4 DUP2 LT ISZERO PUSH2 0x21C JUMPI DUP1 DUP3 ADD MLOAD DUP2 DUP5 ADD MSTORE PUSH1 0x20 DUP2 ADD SWAP1 POP PUSH2 0x201 JUMP JUMPDEST POP POP POP POP SWAP1 POP SWAP1 DUP2 ADD SWAP1 PUSH1 0x1F AND DUP1 ISZERO PUSH2 0x249 JUMPI DUP1 DUP3 SUB DUP1 MLOAD PUSH1 0x1 DUP4 PUSH1 0x20 SUB PUSH2 0x100 EXP SUB NOT AND DUP2 MSTORE PUSH1 0x20 ADD SWAP2 POP JUMPDEST POP SWAP3 POP POP POP PUSH1 0x40 MLOAD DUP1 SWAP2 SUB SWAP1 RETURN JUMPDEST CALLVALUE DUP1 ISZERO PUSH2 0x263 JUMPI PUSH1 0x0 DUP1 REVERT JUMPDEST POP PUSH2 0x2A2 PUSH1 0x4 DUP1 CALLDATASIZE SUB DUP2 ADD SWAP1 DUP1 DUP1 CALLDATALOAD PUSH20 0xFFFFFFFFFFFFFFFFFFFFFFFFFFFFFFFFFFFFFFFF AND SWAP1 PUSH1 0x20 ADD SWAP1 SWAP3 SWAP2 SWAP1 DUP1 CALLDATALOAD SWAP1 PUSH1 0x20 ADD SWAP1 SWAP3 SWAP2 SWAP1 POP POP POP PUSH2 0xC7B JUMP JUMPDEST PUSH1 0x40 MLOAD DUP1 DUP3 ISZERO ISZERO ISZERO ISZERO DUP2 MSTORE PUSH1 0x20 ADD SWAP2 POP POP PUSH1 0x40 MLOAD DUP1 SWAP2 SUB SWAP1 RETURN JUMPDEST CALLVALUE DUP1 ISZERO PUSH2 0x2C8 JUMPI PUSH1 0x0 DUP1 REVERT JUMPDEST POP PUSH2 0x2D1 PUSH2 0xD6D JUMP JUMPDEST PUSH1 0x40 MLOAD DUP1 DUP3 DUP2 MSTORE PUSH1 0x20 ADD SWAP2 POP POP PUSH1 0x40 MLOAD DUP1 SWAP2 SUB SWAP1 RETURN JUMPDEST CALLVALUE DUP1 ISZERO PUSH2 0x2F3 JUMPI PUSH1 0x0 DUP1 REVERT JUMPDEST POP PUSH2 0x2FC PUSH2 0xD73 JUMP JUMPDEST PUSH1 0x40 MLOAD DUP1 DUP3 DUP2 MSTORE PUSH1 0x20 ADD SWAP2 POP POP PUSH1 0x40 MLOAD DUP1 SWAP2 SUB SWAP1 RETURN JUMPDEST CALLVALUE DUP1 ISZERO PUSH2 0x31E JUMPI PUSH1 0x0 DUP1 REVERT JUMPDEST POP PUSH2 0x34B PUSH1 0x4 DUP1 CALLDATASIZE SUB DUP2 ADD SWAP1 DUP1 DUP1 CALLDATALOAD SWAP1 PUSH1 0x20 ADD SWAP1 SWAP3 SWAP2 SWAP1 DUP1 CALLDATALOAD PUSH1 0x0 NOT AND SWAP1 PUSH1 0x20 ADD SWAP1 SWAP3 SWAP2 SWAP1 POP POP POP PUSH2 0xD91 JUMP JUMPDEST PUSH1 0x40 MLOAD DUP1 DUP3 ISZERO ISZERO ISZERO ISZERO DUP2 MSTORE PUSH1 0x20 ADD SWAP2 POP POP PUSH1 0x40 MLOAD DUP1 SWAP2 SUB SWAP1 RETURN JUMPDEST CALLVALUE DUP1 ISZERO PUSH2 0x371 JUMPI PUSH1 0x0 DUP1 REVERT JUMPDEST POP PUSH2 0x37A PUSH2 0x1021 JUMP JUMPDEST PUSH1 0x40 MLOAD DUP1 DUP3 DUP2 MSTORE PUSH1 0x20 ADD SWAP2 POP POP PUSH1 0x40 MLOAD DUP1 SWAP2 SUB SWAP1 RETURN JUMPDEST CALLVALUE DUP1 ISZERO PUSH2 0x39C JUMPI PUSH1 0x0 DUP1 REVERT JUMPDEST POP PUSH2 0x3FB PUSH1 0x4 DUP1 CALLDATASIZE SUB DUP2 ADD SWAP1 DUP1 DUP1 CALLDATALOAD PUSH20 0xFFFFFFFFFFFFFFFFFFFFFFFFFFFFFFFFFFFFFFFF AND SWAP1 PUSH1 0x20 ADD SWAP1 SWAP3 SWAP2 SWAP1 DUP1 CALLDATALOAD PUSH20 0xFFFFFFFFFFFFFFFFFFFFFFFFFFFFFFFFFFFFFFFF AND SWAP1 PUSH1 0x20 ADD SWAP1 SWAP3 SWAP2 SWAP1 DUP1 CALLDATALOAD SWAP1 PUSH1 0x20 ADD SWAP1 SWAP3 SWAP2 SWAP1 POP POP POP PUSH2 0x106C JUMP JUMPDEST PUSH1 0x40 MLOAD DUP1 DUP3 ISZERO ISZERO ISZERO ISZERO DUP2 MSTORE PUSH1 0x20 ADD SWAP2 POP POP PUSH1 0x40 MLOAD DUP1 SWAP2 SUB SWAP1 RETURN JUMPDEST CALLVALUE DUP1 ISZERO PUSH2 0x421 JUMPI PUSH1 0x0 DUP1 REVERT JUMPDEST POP PUSH2 0x42A PUSH2 0x1317 JUMP JUMPDEST PUSH1 0x40 MLOAD DUP1 DUP3 DUP2 MSTORE PUSH1 0x20 ADD SWAP2 POP POP PUSH1 0x40 MLOAD DUP1 SWAP2 SUB SWAP1 RETURN JUMPDEST CALLVALUE DUP1 ISZERO PUSH2 0x44C JUMPI PUSH1 0x0 DUP1 REVERT JUMPDEST POP PUSH2 0x455 PUSH2 0x131D JUMP JUMPDEST PUSH1 0x40 MLOAD DUP1 DUP3 PUSH1 0xFF AND PUSH1 0xFF AND DUP2 MSTORE PUSH1 0x20 ADD SWAP2 POP POP PUSH1 0x40 MLOAD DUP1 SWAP2 SUB SWAP1 RETURN JUMPDEST CALLVALUE DUP1 ISZERO PUSH2 0x47D JUMPI PUSH1 0x0 DUP1 REVERT JUMPDEST POP PUSH2 0x486 PUSH2 0x1330 JUMP JUMPDEST PUSH1 0x40 MLOAD DUP1 DUP3 DUP2 MSTORE PUSH1 0x20 ADD SWAP2 POP POP PUSH1 0x40 MLOAD DUP1 SWAP2 SUB SWAP1 RETURN JUMPDEST CALLVALUE DUP1 ISZERO PUSH2 0x4A8 JUMPI PUSH1 0x0 DUP1 REVERT JUMPDEST POP PUSH2 0x4B1 PUSH2 0x133A JUMP JUMPDEST PUSH1 0x40 MLOAD DUP1 DUP3 DUP2 MSTORE PUSH1 0x20 ADD SWAP2 POP POP PUSH1 0x40 MLOAD DUP1 SWAP2 SUB SWAP1 RETURN JUMPDEST CALLVALUE DUP1 ISZERO PUSH2 0x4D3 JUMPI PUSH1 0x0 DUP1 REVERT JUMPDEST POP PUSH2 0x4DC PUSH2 0x1340 JUMP JUMPDEST PUSH1 0x40 MLOAD DUP1 DUP3 DUP2 MSTORE PUSH1 0x20 ADD SWAP2 POP POP PUSH1 0x40 MLOAD DUP1 SWAP2 SUB SWAP1 RETURN JUMPDEST CALLVALUE DUP1 ISZERO PUSH2 0x4FE JUMPI PUSH1 0x0 DUP1 REVERT JUMPDEST POP PUSH2 0x507 PUSH2 0x1378 JUMP JUMPDEST PUSH1 0x40 MLOAD DUP1 DUP3 PUSH1 0x0 NOT AND PUSH1 0x0 NOT AND DUP2 MSTORE PUSH1 0x20 ADD SWAP2 POP POP PUSH1 0x40 MLOAD DUP1 SWAP2 SUB SWAP1 RETURN JUMPDEST CALLVALUE DUP1 ISZERO PUSH2 0x531 JUMPI PUSH1 0x0 DUP1 REVERT JUMPDEST POP PUSH2 0x53A PUSH2 0x1382 JUMP JUMPDEST PUSH1 0x40 MLOAD DUP1 DUP3 DUP2 MSTORE PUSH1 0x20 ADD SWAP2 POP POP PUSH1 0x40 MLOAD DUP1 SWAP2 SUB SWAP1 RETURN JUMPDEST CALLVALUE DUP1 ISZERO PUSH2 0x55C JUMPI PUSH1 0x0 DUP1 REVERT JUMPDEST POP PUSH2 0x565 PUSH2 0x1388 JUMP JUMPDEST PUSH1 0x40 MLOAD DUP1 DUP3 DUP2 MSTORE PUSH1 0x20 ADD SWAP2 POP POP PUSH1 0x40 MLOAD DUP1 SWAP2 SUB SWAP1 RETURN JUMPDEST CALLVALUE DUP1 ISZERO PUSH2 0x587 JUMPI PUSH1 0x0 DUP1 REVERT JUMPDEST POP PUSH2 0x590 PUSH2 0x138E JUMP JUMPDEST PUSH1 0x40 MLOAD DUP1 DUP3 PUSH20 0xFFFFFFFFFFFFFFFFFFFFFFFFFFFFFFFFFFFFFFFF AND PUSH20 0xFFFFFFFFFFFFFFFFFFFFFFFFFFFFFFFFFFFFFFFF AND DUP2 MSTORE PUSH1 0x20 ADD SWAP2 POP POP PUSH1 0x40 MLOAD DUP1 SWAP2 SUB SWAP1 RETURN JUMPDEST CALLVALUE DUP1 ISZERO PUSH2 0x5DE JUMPI PUSH1 0x0 DUP1 REVERT JUMPDEST POP PUSH2 0x613 PUSH1 0x4 DUP1 CALLDATASIZE SUB DUP2 ADD SWAP1 DUP1 DUP1 CALLDATALOAD PUSH20 0xFFFFFFFFFFFFFFFFFFFFFFFFFFFFFFFFFFFFFFFF AND SWAP1 PUSH1 0x20 ADD SWAP1 SWAP3 SWAP2 SWAP1 POP POP POP PUSH2 0x13B4 JUMP JUMPDEST PUSH1 0x40 MLOAD DUP1 DUP3 DUP2 MSTORE PUSH1 0x20 ADD SWAP2 POP POP PUSH1 0x40 MLOAD DUP1 SWAP2 SUB SWAP1 RETURN JUMPDEST CALLVALUE DUP1 ISZERO PUSH2 0x635 JUMPI PUSH1 0x0 DUP1 REVERT JUMPDEST POP PUSH2 0x63E PUSH2 0x13FD JUMP JUMPDEST STOP JUMPDEST CALLVALUE DUP1 ISZERO PUSH2 0x64C JUMPI PUSH1 0x0 DUP1 REVERT JUMPDEST POP PUSH2 0x691 PUSH1 0x4 DUP1 CALLDATASIZE SUB DUP2 ADD SWAP1 DUP1 DUP1 CALLDATALOAD SWAP1 PUSH1 0x20 ADD SWAP1 SWAP3 SWAP2 SWAP1 DUP1 CALLDATALOAD PUSH1 0x0 NOT AND SWAP1 PUSH1 0x20 ADD SWAP1 SWAP3 SWAP2 SWAP1 DUP1 CALLDATALOAD PUSH1 0x0 NOT AND SWAP1 PUSH1 0x20 ADD SWAP1 SWAP3 SWAP2 SWAP1 DUP1 CALLDATALOAD SWAP1 PUSH1 0x20 ADD SWAP1 SWAP3 SWAP2 SWAP1 POP POP POP PUSH2 0x159C JUMP JUMPDEST PUSH1 0x40 MLOAD DUP1 DUP3 ISZERO ISZERO ISZERO ISZERO DUP2 MSTORE PUSH1 0x20 ADD SWAP2 POP POP PUSH1 0x40 MLOAD DUP1 SWAP2 SUB SWAP1 RETURN JUMPDEST CALLVALUE DUP1 ISZERO PUSH2 0x6B7 JUMPI PUSH1 0x0 DUP1 REVERT JUMPDEST POP PUSH2 0x6C0 PUSH2 0x1631 JUMP JUMPDEST PUSH1 0x40 MLOAD DUP1 DUP3 DUP2 MSTORE PUSH1 0x20 ADD SWAP2 POP POP PUSH1 0x40 MLOAD DUP1 SWAP2 SUB SWAP1 RETURN JUMPDEST CALLVALUE DUP1 ISZERO PUSH2 0x6E2 JUMPI PUSH1 0x0 DUP1 REVERT JUMPDEST POP PUSH2 0x6EB PUSH2 0x1637 JUMP JUMPDEST PUSH1 0x40 MLOAD DUP1 DUP3 DUP2 MSTORE PUSH1 0x20 ADD SWAP2 POP POP PUSH1 0x40 MLOAD DUP1 SWAP2 SUB SWAP1 RETURN JUMPDEST CALLVALUE DUP1 ISZERO PUSH2 0x70D JUMPI PUSH1 0x0 DUP1 REVERT JUMPDEST POP PUSH2 0x716 PUSH2 0x163D JUMP JUMPDEST PUSH1 0x40 MLOAD DUP1 DUP3 DUP2 MSTORE PUSH1 0x20 ADD SWAP2 POP POP PUSH1 0x40 MLOAD DUP1 SWAP2 SUB SWAP1 RETURN JUMPDEST CALLVALUE DUP1 ISZERO PUSH2 0x738 JUMPI PUSH1 0x0 DUP1 REVERT JUMPDEST POP PUSH2 0x741 PUSH2 0x1643 JUMP JUMPDEST PUSH1 0x40 MLOAD DUP1 DUP3 PUSH1 0x0 NOT AND PUSH1 0x0 NOT AND DUP2 MSTORE PUSH1 0x20 ADD SWAP2 POP POP PUSH1 0x40 MLOAD DUP1 SWAP2 SUB SWAP1 RETURN JUMPDEST CALLVALUE DUP1 ISZERO PUSH2 0x76B JUMPI PUSH1 0x0 DUP1 REVERT JUMPDEST POP PUSH2 0x774 PUSH2 0x1649 JUMP JUMPDEST PUSH1 0x40 MLOAD DUP1 DUP3 PUSH20 0xFFFFFFFFFFFFFFFFFFFFFFFFFFFFFFFFFFFFFFFF AND PUSH20 0xFFFFFFFFFFFFFFFFFFFFFFFFFFFFFFFFFFFFFFFF AND DUP2 MSTORE PUSH1 0x20 ADD SWAP2 POP POP PUSH1 0x40 MLOAD DUP1 SWAP2 SUB SWAP1 RETURN JUMPDEST CALLVALUE DUP1 ISZERO PUSH2 0x7C2 JUMPI PUSH1 0x0 DUP1 REVERT JUMPDEST POP PUSH2 0x7CB PUSH2 0x166E JUMP JUMPDEST PUSH1 0x40 MLOAD DUP1 DUP1 PUSH1 0x20 ADD DUP3 DUP2 SUB DUP3 MSTORE DUP4 DUP2 DUP2 MLOAD DUP2 MSTORE PUSH1 0x20 ADD SWAP2 POP DUP1 MLOAD SWAP1 PUSH1 0x20 ADD SWAP1 DUP1 DUP4 DUP4 PUSH1 0x0 JUMPDEST DUP4 DUP2 LT ISZERO PUSH2 0x80B JUMPI DUP1 DUP3 ADD MLOAD DUP2 DUP5 ADD MSTORE PUSH1 0x20 DUP2 ADD SWAP1 POP PUSH2 0x7F0 JUMP JUMPDEST POP POP POP POP SWAP1 POP SWAP1 DUP2 ADD SWAP1 PUSH1 0x1F AND DUP1 ISZERO PUSH2 0x838 JUMPI DUP1 DUP3 SUB DUP1 MLOAD PUSH1 0x1 DUP4 PUSH1 0x20 SUB PUSH2 0x100 EXP SUB NOT AND DUP2 MSTORE PUSH1 0x20 ADD SWAP2 POP JUMPDEST POP SWAP3 POP POP POP PUSH1 0x40 MLOAD DUP1 SWAP2 SUB SWAP1 RETURN JUMPDEST CALLVALUE DUP1 ISZERO PUSH2 0x852 JUMPI PUSH1 0x0 DUP1 REVERT JUMPDEST POP PUSH2 0x88D PUSH1 0x4 DUP1 CALLDATASIZE SUB DUP2 ADD SWAP1 DUP1 DUP1 CALLDATALOAD SWAP1 PUSH1 0x20 ADD SWAP1 SWAP3 SWAP2 SWAP1 DUP1 CALLDATALOAD PUSH1 0x0 NOT AND SWAP1 PUSH1 0x20 ADD SWAP1 SWAP3 SWAP2 SWAP1 DUP1 CALLDATALOAD PUSH1 0x0 NOT AND SWAP1 PUSH1 0x20 ADD SWAP1 SWAP3 SWAP2 SWAP1 POP POP POP PUSH2 0x170C JUMP JUMPDEST PUSH1 0x40 MLOAD DUP1 DUP3 PUSH1 0x0 NOT AND PUSH1 0x0 NOT AND DUP2 MSTORE PUSH1 0x20 ADD SWAP2 POP POP PUSH1 0x40 MLOAD DUP1 SWAP2 SUB SWAP1 RETURN JUMPDEST CALLVALUE DUP1 ISZERO PUSH2 0x8B7 JUMPI PUSH1 0x0 DUP1 REVERT JUMPDEST POP PUSH2 0x8F6 PUSH1 0x4 DUP1 CALLDATASIZE SUB DUP2 ADD SWAP1 DUP1 DUP1 CALLDATALOAD PUSH20 0xFFFFFFFFFFFFFFFFFFFFFFFFFFFFFFFFFFFFFFFF AND SWAP1 PUSH1 0x20 ADD SWAP1 SWAP3 SWAP2 SWAP1 DUP1 CALLDATALOAD SWAP1 PUSH1 0x20 ADD SWAP1 SWAP3 SWAP2 SWAP1 POP POP POP PUSH2 0x1785 JUMP JUMPDEST PUSH1 0x40 MLOAD DUP1 DUP3 ISZERO ISZERO ISZERO ISZERO DUP2 MSTORE PUSH1 0x20 ADD SWAP2 POP POP PUSH1 0x40 MLOAD DUP1 SWAP2 SUB SWAP1 RETURN JUMPDEST CALLVALUE DUP1 ISZERO PUSH2 0x91C JUMPI PUSH1 0x0 DUP1 REVERT JUMPDEST POP PUSH2 0x925 PUSH2 0x1920 JUMP JUMPDEST PUSH1 0x40 MLOAD DUP1 DUP3 DUP2 MSTORE PUSH1 0x20 ADD SWAP2 POP POP PUSH1 0x40 MLOAD DUP1 SWAP2 SUB SWAP1 RETURN JUMPDEST CALLVALUE DUP1 ISZERO PUSH2 0x947 JUMPI PUSH1 0x0 DUP1 REVERT JUMPDEST POP PUSH2 0x950 PUSH2 0x1926 JUMP JUMPDEST PUSH1 0x40 MLOAD DUP1 DUP3 DUP2 MSTORE PUSH1 0x20 ADD SWAP2 POP POP PUSH1 0x40 MLOAD DUP1 SWAP2 SUB SWAP1 RETURN JUMPDEST CALLVALUE DUP1 ISZERO PUSH2 0x972 JUMPI PUSH1 0x0 DUP1 REVERT JUMPDEST POP PUSH2 0x9F7 PUSH1 0x4 DUP1 CALLDATASIZE SUB DUP2 ADD SWAP1 DUP1 DUP1 CALLDATALOAD PUSH20 0xFFFFFFFFFFFFFFFFFFFFFFFFFFFFFFFFFFFFFFFF AND SWAP1 PUSH1 0x20 ADD SWAP1 SWAP3 SWAP2 SWAP1 DUP1 CALLDATALOAD SWAP1 PUSH1 0x20 ADD SWAP1 SWAP3 SWAP2 SWAP1 DUP1 CALLDATALOAD SWAP1 PUSH1 0x20 ADD SWAP1 DUP3 ADD DUP1 CALLDATALOAD SWAP1 PUSH1 0x20 ADD SWAP1 DUP1 DUP1 PUSH1 0x1F ADD PUSH1 0x20 DUP1 SWAP2 DIV MUL PUSH1 0x20 ADD PUSH1 0x40 MLOAD SWAP1 DUP2 ADD PUSH1 0x40 MSTORE DUP1 SWAP4 SWAP3 SWAP2 SWAP1 DUP2 DUP2 MSTORE PUSH1 0x20 ADD DUP4 DUP4 DUP1 DUP3 DUP5 CALLDATACOPY DUP3 ADD SWAP2 POP POP POP POP POP POP SWAP2 SWAP3 SWAP2 SWAP3 SWAP1 POP POP POP PUSH2 0x192C JUMP JUMPDEST PUSH1 0x40 MLOAD DUP1 DUP3 ISZERO ISZERO ISZERO ISZERO DUP2 MSTORE PUSH1 0x20 ADD SWAP2 POP POP PUSH1 0x40 MLOAD DUP1 SWAP2 SUB SWAP1 RETURN JUMPDEST CALLVALUE DUP1 ISZERO PUSH2 0xA1D JUMPI PUSH1 0x0 DUP1 REVERT JUMPDEST POP PUSH2 0xA26 PUSH2 0x1B7B JUMP JUMPDEST PUSH1 0x40 MLOAD DUP1 DUP3 DUP2 MSTORE PUSH1 0x20 ADD SWAP2 POP POP PUSH1 0x40 MLOAD DUP1 SWAP2 SUB SWAP1 RETURN JUMPDEST CALLVALUE DUP1 ISZERO PUSH2 0xA48 JUMPI PUSH1 0x0 DUP1 REVERT JUMPDEST POP PUSH2 0xA51 PUSH2 0x1B81 JUMP JUMPDEST PUSH1 0x40 MLOAD DUP1 DUP3 PUSH20 0xFFFFFFFFFFFFFFFFFFFFFFFFFFFFFFFFFFFFFFFF AND PUSH20 0xFFFFFFFFFFFFFFFFFFFFFFFFFFFFFFFFFFFFFFFF AND DUP2 MSTORE PUSH1 0x20 ADD SWAP2 POP POP PUSH1 0x40 MLOAD DUP1 SWAP2 SUB SWAP1 RETURN JUMPDEST CALLVALUE DUP1 ISZERO PUSH2 0xA9F JUMPI PUSH1 0x0 DUP1 REVERT JUMPDEST POP PUSH2 0xADE PUSH1 0x4 DUP1 CALLDATASIZE SUB DUP2 ADD SWAP1 DUP1 DUP1 CALLDATALOAD PUSH20 0xFFFFFFFFFFFFFFFFFFFFFFFFFFFFFFFFFFFFFFFF AND SWAP1 PUSH1 0x20 ADD SWAP1 SWAP3 SWAP2 SWAP1 DUP1 CALLDATALOAD SWAP1 PUSH1 0x20 ADD SWAP1 SWAP3 SWAP2 SWAP1 POP POP POP PUSH2 0x1BA7 JUMP JUMPDEST PUSH1 0x40 MLOAD DUP1 DUP3 ISZERO ISZERO ISZERO ISZERO DUP2 MSTORE PUSH1 0x20 ADD SWAP2 POP POP PUSH1 0x40 MLOAD DUP1 SWAP2 SUB SWAP1 RETURN JUMPDEST CALLVALUE DUP1 ISZERO PUSH2 0xB04 JUMPI PUSH1 0x0 DUP1 REVERT JUMPDEST POP PUSH2 0xB0D PUSH2 0x1D0B JUMP JUMPDEST PUSH1 0x40 MLOAD DUP1 DUP3 DUP2 MSTORE PUSH1 0x20 ADD SWAP2 POP POP PUSH1 0x40 MLOAD DUP1 SWAP2 SUB SWAP1 RETURN JUMPDEST CALLVALUE DUP1 ISZERO PUSH2 0xB2F JUMPI PUSH1 0x0 DUP1 REVERT JUMPDEST POP PUSH2 0xB84 PUSH1 0x4 DUP1 CALLDATASIZE SUB DUP2 ADD SWAP1 DUP1 DUP1 CALLDATALOAD PUSH20 0xFFFFFFFFFFFFFFFFFFFFFFFFFFFFFFFFFFFFFFFF AND SWAP1 PUSH1 0x20 ADD SWAP1 SWAP3 SWAP2 SWAP1 DUP1 CALLDATALOAD PUSH20 0xFFFFFFFFFFFFFFFFFFFFFFFFFFFFFFFFFFFFFFFF AND SWAP1 PUSH1 0x20 ADD SWAP1 SWAP3 SWAP2 SWAP1 POP POP POP PUSH2 0x1D11 JUMP JUMPDEST PUSH1 0x40 MLOAD DUP1 DUP3 DUP2 MSTORE PUSH1 0x20 ADD SWAP2 POP POP PUSH1 0x40 MLOAD DUP1 SWAP2 SUB SWAP1 RETURN JUMPDEST CALLVALUE DUP1 ISZERO PUSH2 0xBA6 JUMPI PUSH1 0x0 DUP1 REVERT JUMPDEST POP PUSH2 0xBDB PUSH1 0x4 DUP1 CALLDATASIZE SUB DUP2 ADD SWAP1 DUP1 DUP1 CALLDATALOAD PUSH20 0xFFFFFFFFFFFFFFFFFFFFFFFFFFFFFFFFFFFFFFFF AND SWAP1 PUSH1 0x20 ADD SWAP1 SWAP3 SWAP2 SWAP1 POP POP POP PUSH2 0x1D98 JUMP JUMPDEST STOP JUMPDEST PUSH1 0x3 DUP1 SLOAD PUSH1 0x1 DUP2 PUSH1 0x1 AND ISZERO PUSH2 0x100 MUL SUB AND PUSH1 0x2 SWAP1 DIV DUP1 PUSH1 0x1F ADD PUSH1 0x20 DUP1 SWAP2 DIV MUL PUSH1 0x20 ADD PUSH1 0x40 MLOAD SWAP1 DUP2 ADD PUSH1 0x40 MSTORE DUP1 SWAP3 SWAP2 SWAP1 DUP2 DUP2 MSTORE PUSH1 0x20 ADD DUP3 DUP1 SLOAD PUSH1 0x1 DUP2 PUSH1 0x1 AND ISZERO PUSH2 0x100 MUL SUB AND PUSH1 0x2 SWAP1 DIV DUP1 ISZERO PUSH2 0xC73 JUMPI DUP1 PUSH1 0x1F LT PUSH2 0xC48 JUMPI PUSH2 0x100 DUP1 DUP4 SLOAD DIV MUL DUP4 MSTORE SWAP2 PUSH1 0x20 ADD SWAP2 PUSH2 0xC73 JUMP JUMPDEST DUP3 ADD SWAP2 SWAP1 PUSH1 0x0 MSTORE PUSH1 0x20 PUSH1 0x0 KECCAK256 SWAP1 JUMPDEST DUP2 SLOAD DUP2 MSTORE SWAP1 PUSH1 0x1 ADD SWAP1 PUSH1 0x20 ADD DUP1 DUP4 GT PUSH2 0xC56 JUMPI DUP3 SWAP1 SUB PUSH1 0x1F AND DUP3 ADD SWAP2 JUMPDEST POP POP POP POP POP DUP2 JUMP JUMPDEST PUSH1 0x0 DUP2 PUSH1 0x16 PUSH1 0x0 CALLER PUSH20 0xFFFFFFFFFFFFFFFFFFFFFFFFFFFFFFFFFFFFFFFF AND PUSH20 0xFFFFFFFFFFFFFFFFFFFFFFFFFFFFFFFFFFFFFFFF AND DUP2 MSTORE PUSH1 0x20 ADD SWAP1 DUP2 MSTORE PUSH1 0x20 ADD PUSH1 0x0 KECCAK256 PUSH1 0x0 DUP6 PUSH20 0xFFFFFFFFFFFFFFFFFFFFFFFFFFFFFFFFFFFFFFFF AND PUSH20 0xFFFFFFFFFFFFFFFFFFFFFFFFFFFFFFFFFFFFFFFF AND DUP2 MSTORE PUSH1 0x20 ADD SWAP1 DUP2 MSTORE PUSH1 0x20 ADD PUSH1 0x0 KECCAK256 DUP2 SWAP1 SSTORE POP DUP3 PUSH20 0xFFFFFFFFFFFFFFFFFFFFFFFFFFFFFFFFFFFFFFFF AND CALLER PUSH20 0xFFFFFFFFFFFFFFFFFFFFFFFFFFFFFFFFFFFFFFFF AND PUSH32 0x8C5BE1E5EBEC7D5BD14F71427D1E84F3DD0314C0F7B2291E5B200AC8C7C3B925 DUP5 PUSH1 0x40 MLOAD DUP1 DUP3 DUP2 MSTORE PUSH1 0x20 ADD SWAP2 POP POP PUSH1 0x40 MLOAD DUP1 SWAP2 SUB SWAP1 LOG3 PUSH1 0x1 SWAP1 POP SWAP3 SWAP2 POP POP JUMP JUMPDEST PUSH1 0x11 SLOAD DUP2 JUMP JUMPDEST PUSH1 0x0 PUSH2 0xD8C PUSH1 0xB SLOAD PUSH1 0xA SLOAD PUSH2 0x1E37 SWAP1 SWAP2 SWAP1 PUSH4 0xFFFFFFFF AND JUMP JUMPDEST SWAP1 POP SWAP1 JUMP JUMPDEST PUSH1 0x0 DUP1 PUSH1 0x0 DUP1 PUSH1 0xC SLOAD CALLER DUP8 PUSH1 0x40 MLOAD DUP1 DUP5 PUSH1 0x0 NOT AND PUSH1 0x0 NOT AND DUP2 MSTORE PUSH1 0x20 ADD DUP4 PUSH20 0xFFFFFFFFFFFFFFFFFFFFFFFFFFFFFFFFFFFFFFFF AND PUSH20 0xFFFFFFFFFFFFFFFFFFFFFFFFFFFFFFFFFFFFFFFF AND PUSH13 0x1000000000000000000000000 MUL DUP2 MSTORE PUSH1 0x14 ADD DUP3 DUP2 MSTORE PUSH1 0x20 ADD SWAP4 POP POP POP POP PUSH1 0x40 MLOAD DUP1 SWAP2 SUB SWAP1 KECCAK256 SWAP3 POP DUP5 PUSH1 0x0 NOT AND DUP4 PUSH1 0x0 NOT AND EQ ISZERO ISZERO PUSH2 0xE1A JUMPI PUSH1 0x0 DUP1 REVERT JUMPDEST PUSH1 0xB SLOAD DUP4 PUSH1 0x1 SWAP1 DIV GT ISZERO PUSH2 0xE2D JUMPI PUSH1 0x0 DUP1 REVERT JUMPDEST PUSH1 0x13 PUSH1 0x0 PUSH1 0xC SLOAD PUSH1 0x0 NOT AND PUSH1 0x0 NOT AND DUP2 MSTORE PUSH1 0x20 ADD SWAP1 DUP2 MSTORE PUSH1 0x20 ADD PUSH1 0x0 KECCAK256 SLOAD SWAP2 POP DUP3 PUSH1 0x13 PUSH1 0x0 PUSH1 0xC SLOAD PUSH1 0x0 NOT AND PUSH1 0x0 NOT AND DUP2 MSTORE PUSH1 0x20 ADD SWAP1 DUP2 MSTORE PUSH1 0x20 ADD PUSH1 0x0 KECCAK256 DUP2 PUSH1 0x0 NOT AND SWAP1 SSTORE POP PUSH1 0x0 PUSH1 0x1 MUL DUP3 PUSH1 0x0 NOT AND EQ ISZERO ISZERO PUSH2 0xE89 JUMPI PUSH1 0x0 DUP1 REVERT JUMPDEST PUSH2 0xE91 PUSH2 0x1340 JUMP JUMPDEST SWAP1 POP PUSH2 0xEE5 DUP2 PUSH1 0x15 PUSH1 0x0 CALLER PUSH20 0xFFFFFFFFFFFFFFFFFFFFFFFFFFFFFFFFFFFFFFFF AND PUSH20 0xFFFFFFFFFFFFFFFFFFFFFFFFFFFFFFFFFFFFFFFF AND DUP2 MSTORE PUSH1 0x20 ADD SWAP1 DUP2 MSTORE PUSH1 0x20 ADD PUSH1 0x0 KECCAK256 SLOAD PUSH2 0x1E5B SWAP1 SWAP2 SWAP1 PUSH4 0xFFFFFFFF AND JUMP JUMPDEST PUSH1 0x15 PUSH1 0x0 CALLER PUSH20 0xFFFFFFFFFFFFFFFFFFFFFFFFFFFFFFFFFFFFFFFF AND PUSH20 0xFFFFFFFFFFFFFFFFFFFFFFFFFFFFFFFFFFFFFFFF AND DUP2 MSTORE PUSH1 0x20 ADD SWAP1 DUP2 MSTORE PUSH1 0x20 ADD PUSH1 0x0 KECCAK256 DUP2 SWAP1 SSTORE POP PUSH2 0xF3D DUP2 PUSH1 0x14 SLOAD PUSH2 0x1E5B SWAP1 SWAP2 SWAP1 PUSH4 0xFFFFFFFF AND JUMP JUMPDEST PUSH1 0x14 DUP2 SWAP1 SSTORE POP PUSH1 0xE SLOAD PUSH1 0x14 SLOAD GT ISZERO ISZERO ISZERO PUSH2 0xF53 JUMPI INVALID JUMPDEST CALLER PUSH1 0xF PUSH1 0x0 PUSH2 0x100 EXP DUP2 SLOAD DUP2 PUSH20 0xFFFFFFFFFFFFFFFFFFFFFFFFFFFFFFFFFFFFFFFF MUL NOT AND SWAP1 DUP4 PUSH20 0xFFFFFFFFFFFFFFFFFFFFFFFFFFFFFFFFFFFFFFFF AND MUL OR SWAP1 SSTORE POP DUP1 PUSH1 0x10 DUP2 SWAP1 SSTORE POP NUMBER PUSH1 0x11 DUP2 SWAP1 SSTORE POP PUSH2 0xFAA PUSH2 0x1E77 JUMP JUMPDEST CALLER PUSH20 0xFFFFFFFFFFFFFFFFFFFFFFFFFFFFFFFFFFFFFFFF AND PUSH32 0xCF6FBB9DCEA7D07263AB4F5C3A92F53AF33DFFC421D9D121E1C74B307E68189D DUP3 PUSH1 0x7 SLOAD PUSH1 0xC SLOAD PUSH1 0x40 MLOAD DUP1 DUP5 DUP2 MSTORE PUSH1 0x20 ADD DUP4 DUP2 MSTORE PUSH1 0x20 ADD DUP3 PUSH1 0x0 NOT AND PUSH1 0x0 NOT AND DUP2 MSTORE PUSH1 0x20 ADD SWAP4 POP POP POP POP PUSH1 0x40 MLOAD DUP1 SWAP2 SUB SWAP1 LOG2 PUSH1 0x1 SWAP4 POP POP POP POP SWAP3 SWAP2 POP POP JUMP JUMPDEST PUSH1 0x0 PUSH1 0x15 PUSH1 0x0 DUP1 PUSH20 0xFFFFFFFFFFFFFFFFFFFFFFFFFFFFFFFFFFFFFFFF AND PUSH20 0xFFFFFFFFFFFFFFFFFFFFFFFFFFFFFFFFFFFFFFFF AND DUP2 MSTORE PUSH1 0x20 ADD SWAP1 DUP2 MSTORE PUSH1 0x20 ADD PUSH1 0x0 KECCAK256 SLOAD PUSH1 0x5 SLOAD SUB SWAP1 POP SWAP1 JUMP JUMPDEST PUSH1 0x0 PUSH2 0x10C0 DUP3 PUSH1 0x15 PUSH1 0x0 DUP8 PUSH20 0xFFFFFFFFFFFFFFFFFFFFFFFFFFFFFFFFFFFFFFFF AND PUSH20 0xFFFFFFFFFFFFFFFFFFFFFFFFFFFFFFFFFFFFFFFF AND DUP2 MSTORE PUSH1 0x20 ADD SWAP1 DUP2 MSTORE PUSH1 0x20 ADD PUSH1 0x0 KECCAK256 SLOAD PUSH2 0x1F2C SWAP1 SWAP2 SWAP1 PUSH4 0xFFFFFFFF AND JUMP JUMPDEST PUSH1 0x15 PUSH1 0x0 DUP7 PUSH20 0xFFFFFFFFFFFFFFFFFFFFFFFFFFFFFFFFFFFFFFFF AND PUSH20 0xFFFFFFFFFFFFFFFFFFFFFFFFFFFFFFFFFFFFFFFF AND DUP2 MSTORE PUSH1 0x20 ADD SWAP1 DUP2 MSTORE PUSH1 0x20 ADD PUSH1 0x0 KECCAK256 DUP2 SWAP1 SSTORE POP PUSH2 0x1192 DUP3 PUSH1 0x16 PUSH1 0x0 DUP8 PUSH20 0xFFFFFFFFFFFFFFFFFFFFFFFFFFFFFFFFFFFFFFFF AND PUSH20 0xFFFFFFFFFFFFFFFFFFFFFFFFFFFFFFFFFFFFFFFF AND DUP2 MSTORE PUSH1 0x20 ADD SWAP1 DUP2 MSTORE PUSH1 0x20 ADD PUSH1 0x0 KECCAK256 PUSH1 0x0 CALLER PUSH20 0xFFFFFFFFFFFFFFFFFFFFFFFFFFFFFFFFFFFFFFFF AND PUSH20 0xFFFFFFFFFFFFFFFFFFFFFFFFFFFFFFFFFFFFFFFF AND DUP2 MSTORE PUSH1 0x20 ADD SWAP1 DUP2 MSTORE PUSH1 0x20 ADD PUSH1 0x0 KECCAK256 SLOAD PUSH2 0x1F2C SWAP1 SWAP2 SWAP1 PUSH4 0xFFFFFFFF AND JUMP JUMPDEST PUSH1 0x16 PUSH1 0x0 DUP7 PUSH20 0xFFFFFFFFFFFFFFFFFFFFFFFFFFFFFFFFFFFFFFFF AND PUSH20 0xFFFFFFFFFFFFFFFFFFFFFFFFFFFFFFFFFFFFFFFF AND DUP2 MSTORE PUSH1 0x20 ADD SWAP1 DUP2 MSTORE PUSH1 0x20 ADD PUSH1 0x0 KECCAK256 PUSH1 0x0 CALLER PUSH20 0xFFFFFFFFFFFFFFFFFFFFFFFFFFFFFFFFFFFFFFFF AND PUSH20 0xFFFFFFFFFFFFFFFFFFFFFFFFFFFFFFFFFFFFFFFF AND DUP2 MSTORE PUSH1 0x20 ADD SWAP1 DUP2 MSTORE PUSH1 0x20 ADD PUSH1 0x0 KECCAK256 DUP2 SWAP1 SSTORE POP PUSH2 0x1264 DUP3 PUSH1 0x15 PUSH1 0x0 DUP7 PUSH20 0xFFFFFFFFFFFFFFFFFFFFFFFFFFFFFFFFFFFFFFFF AND PUSH20 0xFFFFFFFFFFFFFFFFFFFFFFFFFFFFFFFFFFFFFFFF AND DUP2 MSTORE PUSH1 0x20 ADD SWAP1 DUP2 MSTORE PUSH1 0x20 ADD PUSH1 0x0 KECCAK256 SLOAD PUSH2 0x1E5B SWAP1 SWAP2 SWAP1 PUSH4 0xFFFFFFFF AND JUMP JUMPDEST PUSH1 0x15 PUSH1 0x0 DUP6 PUSH20 0xFFFFFFFFFFFFFFFFFFFFFFFFFFFFFFFFFFFFFFFF AND PUSH20 0xFFFFFFFFFFFFFFFFFFFFFFFFFFFFFFFFFFFFFFFF AND DUP2 MSTORE PUSH1 0x20 ADD SWAP1 DUP2 MSTORE PUSH1 0x20 ADD PUSH1 0x0 KECCAK256 DUP2 SWAP1 SSTORE POP DUP3 PUSH20 0xFFFFFFFFFFFFFFFFFFFFFFFFFFFFFFFFFFFFFFFF AND DUP5 PUSH20 0xFFFFFFFFFFFFFFFFFFFFFFFFFFFFFFFFFFFFFFFF AND PUSH32 0xDDF252AD1BE2C89B69C2B068FC378DAA952BA7F163C4A11628F55A4DF523B3EF DUP5 PUSH1 0x40 MLOAD DUP1 DUP3 DUP2 MSTORE PUSH1 0x20 ADD SWAP2 POP POP PUSH1 0x40 MLOAD DUP1 SWAP2 SUB SWAP1 LOG3 PUSH1 0x1 SWAP1 POP SWAP4 SWAP3 POP POP POP JUMP JUMPDEST PUSH1 0xD SLOAD DUP2 JUMP JUMPDEST PUSH1 0x4 PUSH1 0x0 SWAP1 SLOAD SWAP1 PUSH2 0x100 EXP SWAP1 DIV PUSH1 0xFF AND DUP2 JUMP JUMPDEST PUSH1 0x0 PUSH1 0xB SLOAD SWAP1 POP SWAP1 JUMP JUMPDEST PUSH1 0x5 SLOAD DUP2 JUMP JUMPDEST PUSH1 0x0 PUSH2 0x1373 PUSH1 0xD SLOAD PUSH1 0x2 EXP PUSH1 0x4 PUSH1 0x0 SWAP1 SLOAD SWAP1 PUSH2 0x100 EXP SWAP1 DIV PUSH1 0xFF AND PUSH1 0xFF AND PUSH1 0xA EXP PUSH2 0x320 MUL PUSH2 0x1E37 SWAP1 SWAP2 SWAP1 PUSH4 0xFFFFFFFF AND JUMP JUMPDEST SWAP1 POP SWAP1 JUMP JUMPDEST PUSH1 0x0 PUSH1 0xC SLOAD SWAP1 POP SWAP1 JUMP JUMPDEST PUSH1 0xE SLOAD DUP2 JUMP JUMPDEST PUSH1 0x14 SLOAD DUP2 JUMP JUMPDEST PUSH1 0xF PUSH1 0x0 SWAP1 SLOAD SWAP1 PUSH2 0x100 EXP SWAP1 DIV PUSH20 0xFFFFFFFFFFFFFFFFFFFFFFFFFFFFFFFFFFFFFFFF AND DUP2 JUMP JUMPDEST PUSH1 0x0 PUSH1 0x15 PUSH1 0x0 DUP4 PUSH20 0xFFFFFFFFFFFFFFFFFFFFFFFFFFFFFFFFFFFFFFFF AND PUSH20 0xFFFFFFFFFFFFFFFFFFFFFFFFFFFFFFFFFFFFFFFF AND DUP2 MSTORE PUSH1 0x20 ADD SWAP1 DUP2 MSTORE PUSH1 0x20 ADD PUSH1 0x0 KECCAK256 SLOAD SWAP1 POP SWAP2 SWAP1 POP JUMP JUMPDEST PUSH1 0x1 PUSH1 0x0 SWAP1 SLOAD SWAP1 PUSH2 0x100 EXP SWAP1 DIV PUSH20 0xFFFFFFFFFFFFFFFFFFFFFFFFFFFFFFFFFFFFFFFF AND PUSH20 0xFFFFFFFFFFFFFFFFFFFFFFFFFFFFFFFFFFFFFFFF AND CALLER PUSH20 0xFFFFFFFFFFFFFFFFFFFFFFFFFFFFFFFFFFFFFFFF AND EQ ISZERO ISZERO PUSH2 0x1459 JUMPI PUSH1 0x0 DUP1 REVERT JUMPDEST PUSH1 0x1 PUSH1 0x0 SWAP1 SLOAD SWAP1 PUSH2 0x100 EXP SWAP1 DIV PUSH20 0xFFFFFFFFFFFFFFFFFFFFFFFFFFFFFFFFFFFFFFFF AND PUSH20 0xFFFFFFFFFFFFFFFFFFFFFFFFFFFFFFFFFFFFFFFF AND PUSH1 0x0 DUP1 SWAP1 SLOAD SWAP1 PUSH2 0x100 EXP SWAP1 DIV PUSH20 0xFFFFFFFFFFFFFFFFFFFFFFFFFFFFFFFFFFFFFFFF AND PUSH20 0xFFFFFFFFFFFFFFFFFFFFFFFFFFFFFFFFFFFFFFFF AND PUSH32 0x8BE0079C531659141344CD1FD0A4F28419497F9722A3DAAFE3B4186F6B6457E0 PUSH1 0x40 MLOAD PUSH1 0x40 MLOAD DUP1 SWAP2 SUB SWAP1 LOG3 PUSH1 0x1 PUSH1 0x0 SWAP1 SLOAD SWAP1 PUSH2 0x100 EXP SWAP1 DIV PUSH20 0xFFFFFFFFFFFFFFFFFFFFFFFFFFFFFFFFFFFFFFFF AND PUSH1 0x0 DUP1 PUSH2 0x100 EXP DUP2 SLOAD DUP2 PUSH20 0xFFFFFFFFFFFFFFFFFFFFFFFFFFFFFFFFFFFFFFFF MUL NOT AND SWAP1 DUP4 PUSH20 0xFFFFFFFFFFFFFFFFFFFFFFFFFFFFFFFFFFFFFFFF AND MUL OR SWAP1 SSTORE POP PUSH1 0x0 PUSH1 0x1 PUSH1 0x0 PUSH2 0x100 EXP DUP2 SLOAD DUP2 PUSH20 0xFFFFFFFFFFFFFFFFFFFFFFFFFFFFFFFFFFFFFFFF MUL NOT AND SWAP1 DUP4 PUSH20 0xFFFFFFFFFFFFFFFFFFFFFFFFFFFFFFFFFFFFFFFF AND MUL OR SWAP1 SSTORE POP JUMP JUMPDEST PUSH1 0x0 DUP1 DUP4 CALLER DUP8 PUSH1 0x40 MLOAD DUP1 DUP5 PUSH1 0x0 NOT AND PUSH1 0x0 NOT AND DUP2 MSTORE PUSH1 0x20 ADD DUP4 PUSH20 0xFFFFFFFFFFFFFFFFFFFFFFFFFFFFFFFFFFFFFFFF AND PUSH20 0xFFFFFFFFFFFFFFFFFFFFFFFFFFFFFFFFFFFFFFFF AND PUSH13 0x1000000000000000000000000 MUL DUP2 MSTORE PUSH1 0x14 ADD DUP3 DUP2 MSTORE PUSH1 0x20 ADD SWAP4 POP POP POP POP PUSH1 0x40 MLOAD DUP1 SWAP2 SUB SWAP1 KECCAK256 SWAP1 POP DUP3 DUP2 PUSH1 0x1 SWAP1 DIV GT ISZERO PUSH2 0x161B JUMPI PUSH1 0x0 DUP1 REVERT JUMPDEST DUP5 PUSH1 0x0 NOT AND DUP2 PUSH1 0x0 NOT AND EQ SWAP2 POP POP SWAP5 SWAP4 POP POP POP POP JUMP JUMPDEST PUSH1 0x7 SLOAD DUP2 JUMP JUMPDEST PUSH1 0xA SLOAD DUP2 JUMP JUMPDEST PUSH1 0xB SLOAD DUP2 JUMP JUMPDEST PUSH1 0xC SLOAD DUP2 JUMP JUMPDEST PUSH1 0x0 DUP1 SWAP1 SLOAD SWAP1 PUSH2 0x100 EXP SWAP1 DIV PUSH20 0xFFFFFFFFFFFFFFFFFFFFFFFFFFFFFFFFFFFFFFFF AND DUP2 JUMP JUMPDEST PUSH1 0x2 DUP1 SLOAD PUSH1 0x1 DUP2 PUSH1 0x1 AND ISZERO PUSH2 0x100 MUL SUB AND PUSH1 0x2 SWAP1 DIV DUP1 PUSH1 0x1F ADD PUSH1 0x20 DUP1 SWAP2 DIV MUL PUSH1 0x20 ADD PUSH1 0x40 MLOAD SWAP1 DUP2 ADD PUSH1 0x40 MSTORE DUP1 SWAP3 SWAP2 SWAP1 DUP2 DUP2 MSTORE PUSH1 0x20 ADD DUP3 DUP1 SLOAD PUSH1 0x1 DUP2 PUSH1 0x1 AND ISZERO PUSH2 0x100 MUL SUB AND PUSH1 0x2 SWAP1 DIV DUP1 ISZERO PUSH2 0x1704 JUMPI DUP1 PUSH1 0x1F LT PUSH2 0x16D9 JUMPI PUSH2 0x100 DUP1 DUP4 SLOAD DIV MUL DUP4 MSTORE SWAP2 PUSH1 0x20 ADD SWAP2 PUSH2 0x1704 JUMP JUMPDEST DUP3 ADD SWAP2 SWAP1 PUSH1 0x0 MSTORE PUSH1 0x20 PUSH1 0x0 KECCAK256 SWAP1 JUMPDEST DUP2 SLOAD DUP2 MSTORE SWAP1 PUSH1 0x1 ADD SWAP1 PUSH1 0x20 ADD DUP1 DUP4 GT PUSH2 0x16E7 JUMPI DUP3 SWAP1 SUB PUSH1 0x1F AND DUP3 ADD SWAP2 JUMPDEST POP POP POP POP POP DUP2 JUMP JUMPDEST PUSH1 0x0 DUP1 DUP3 CALLER DUP7 PUSH1 0x40 MLOAD DUP1 DUP5 PUSH1 0x0 NOT AND PUSH1 0x0 NOT AND DUP2 MSTORE PUSH1 0x20 ADD DUP4 PUSH20 0xFFFFFFFFFFFFFFFFFFFFFFFFFFFFFFFFFFFFFFFF AND PUSH20 0xFFFFFFFFFFFFFFFFFFFFFFFFFFFFFFFFFFFFFFFF AND PUSH13 0x1000000000000000000000000 MUL DUP2 MSTORE PUSH1 0x14 ADD DUP3 DUP2 MSTORE PUSH1 0x20 ADD SWAP4 POP POP POP POP PUSH1 0x40 MLOAD DUP1 SWAP2 SUB SWAP1 KECCAK256 SWAP1 POP DUP1 SWAP2 POP POP SWAP4 SWAP3 POP POP POP JUMP JUMPDEST PUSH1 0x0 PUSH2 0x17D9 DUP3 PUSH1 0x15 PUSH1 0x0 CALLER PUSH20 0xFFFFFFFFFFFFFFFFFFFFFFFFFFFFFFFFFFFFFFFF AND PUSH20 0xFFFFFFFFFFFFFFFFFFFFFFFFFFFFFFFFFFFFFFFF AND DUP2 MSTORE PUSH1 0x20 ADD SWAP1 DUP2 MSTORE PUSH1 0x20 ADD PUSH1 0x0 KECCAK256 SLOAD PUSH2 0x1F2C SWAP1 SWAP2 SWAP1 PUSH4 0xFFFFFFFF AND JUMP JUMPDEST PUSH1 0x15 PUSH1 0x0 CALLER PUSH20 0xFFFFFFFFFFFFFFFFFFFFFFFFFFFFFFFFFFFFFFFF AND PUSH20 0xFFFFFFFFFFFFFFFFFFFFFFFFFFFFFFFFFFFFFFFF AND DUP2 MSTORE PUSH1 0x20 ADD SWAP1 DUP2 MSTORE PUSH1 0x20 ADD PUSH1 0x0 KECCAK256 DUP2 SWAP1 SSTORE POP PUSH2 0x186E DUP3 PUSH1 0x15 PUSH1 0x0 DUP7 PUSH20 0xFFFFFFFFFFFFFFFFFFFFFFFFFFFFFFFFFFFFFFFF AND PUSH20 0xFFFFFFFFFFFFFFFFFFFFFFFFFFFFFFFFFFFFFFFF AND DUP2 MSTORE PUSH1 0x20 ADD SWAP1 DUP2 MSTORE PUSH1 0x20 ADD PUSH1 0x0 KECCAK256 SLOAD PUSH2 0x1E5B SWAP1 SWAP2 SWAP1 PUSH4 0xFFFFFFFF AND JUMP JUMPDEST PUSH1 0x15 PUSH1 0x0 DUP6 PUSH20 0xFFFFFFFFFFFFFFFFFFFFFFFFFFFFFFFFFFFFFFFF AND PUSH20 0xFFFFFFFFFFFFFFFFFFFFFFFFFFFFFFFFFFFFFFFF AND DUP2 MSTORE PUSH1 0x20 ADD SWAP1 DUP2 MSTORE PUSH1 0x20 ADD PUSH1 0x0 KECCAK256 DUP2 SWAP1 SSTORE POP DUP3 PUSH20 0xFFFFFFFFFFFFFFFFFFFFFFFFFFFFFFFFFFFFFFFF AND CALLER PUSH20 0xFFFFFFFFFFFFFFFFFFFFFFFFFFFFFFFFFFFFFFFF AND PUSH32 0xDDF252AD1BE2C89B69C2B068FC378DAA952BA7F163C4A11628F55A4DF523B3EF DUP5 PUSH1 0x40 MLOAD DUP1 DUP3 DUP2 MSTORE PUSH1 0x20 ADD SWAP2 POP POP PUSH1 0x40 MLOAD DUP1 SWAP2 SUB SWAP1 LOG3 PUSH1 0x1 SWAP1 POP SWAP3 SWAP2 POP POP JUMP JUMPDEST PUSH1 0x8 SLOAD DUP2 JUMP JUMPDEST PUSH1 0x10 SLOAD DUP2 JUMP JUMPDEST PUSH1 0x0 DUP3 PUSH1 0x16 PUSH1 0x0 CALLER PUSH20 0xFFFFFFFFFFFFFFFFFFFFFFFFFFFFFFFFFFFFFFFF AND PUSH20 0xFFFFFFFFFFFFFFFFFFFFFFFFFFFFFFFFFFFFFFFF AND DUP2 MSTORE PUSH1 0x20 ADD SWAP1 DUP2 MSTORE PUSH1 0x20 ADD PUSH1 0x0 KECCAK256 PUSH1 0x0 DUP7 PUSH20 0xFFFFFFFFFFFFFFFFFFFFFFFFFFFFFFFFFFFFFFFF AND PUSH20 0xFFFFFFFFFFFFFFFFFFFFFFFFFFFFFFFFFFFFFFFF AND DUP2 MSTORE PUSH1 0x20 ADD SWAP1 DUP2 MSTORE PUSH1 0x20 ADD PUSH1 0x0 KECCAK256 DUP2 SWAP1 SSTORE POP DUP4 PUSH20 0xFFFFFFFFFFFFFFFFFFFFFFFFFFFFFFFFFFFFFFFF AND CALLER PUSH20 0xFFFFFFFFFFFFFFFFFFFFFFFFFFFFFFFFFFFFFFFF AND PUSH32 0x8C5BE1E5EBEC7D5BD14F71427D1E84F3DD0314C0F7B2291E5B200AC8C7C3B925 DUP6 PUSH1 0x40 MLOAD DUP1 DUP3 DUP2 MSTORE PUSH1 0x20 ADD SWAP2 POP POP PUSH1 0x40 MLOAD DUP1 SWAP2 SUB SWAP1 LOG3 DUP4 PUSH20 0xFFFFFFFFFFFFFFFFFFFFFFFFFFFFFFFFFFFFFFFF AND PUSH4 0x8F4FFCB1 CALLER DUP6 ADDRESS DUP7 PUSH1 0x40 MLOAD DUP6 PUSH4 0xFFFFFFFF AND PUSH29 0x100000000000000000000000000000000000000000000000000000000 MUL DUP2 MSTORE PUSH1 0x4 ADD DUP1 DUP6 PUSH20 0xFFFFFFFFFFFFFFFFFFFFFFFFFFFFFFFFFFFFFFFF AND PUSH20 0xFFFFFFFFFFFFFFFFFFFFFFFFFFFFFFFFFFFFFFFF AND DUP2 MSTORE PUSH1 0x20 ADD DUP5 DUP2 MSTORE PUSH1 0x20 ADD DUP4 PUSH20 0xFFFFFFFFFFFFFFFFFFFFFFFFFFFFFFFFFFFFFFFF AND PUSH20 0xFFFFFFFFFFFFFFFFFFFFFFFFFFFFFFFFFFFFFFFF AND DUP2 MSTORE PUSH1 0x20 ADD DUP1 PUSH1 0x20 ADD DUP3 DUP2 SUB DUP3 MSTORE DUP4 DUP2 DUP2 MLOAD DUP2 MSTORE PUSH1 0x20 ADD SWAP2 POP DUP1 MLOAD SWAP1 PUSH1 0x20 ADD SWAP1 DUP1 DUP4 DUP4 PUSH1 0x0 JUMPDEST DUP4 DUP2 LT ISZERO PUSH2 0x1B09 JUMPI DUP1 DUP3 ADD MLOAD DUP2 DUP5 ADD MSTORE PUSH1 0x20 DUP2 ADD SWAP1 POP PUSH2 0x1AEE JUMP JUMPDEST POP POP POP POP SWAP1 POP SWAP1 DUP2 ADD SWAP1 PUSH1 0x1F AND DUP1 ISZERO PUSH2 0x1B36 JUMPI DUP1 DUP3 SUB DUP1 MLOAD PUSH1 0x1 DUP4 PUSH1 0x20 SUB PUSH2 0x100 EXP SUB NOT AND DUP2 MSTORE PUSH1 0x20 ADD SWAP2 POP JUMPDEST POP SWAP6 POP POP POP POP POP POP PUSH1 0x0 PUSH1 0x40 MLOAD DUP1 DUP4 SUB DUP2 PUSH1 0x0 DUP8 DUP1 EXTCODESIZE ISZERO DUP1 ISZERO PUSH2 0x1B58 JUMPI PUSH1 0x0 DUP1 REVERT JUMPDEST POP GAS CALL ISZERO DUP1 ISZERO PUSH2 0x1B6C JUMPI RETURNDATASIZE PUSH1 0x0 DUP1 RETURNDATACOPY RETURNDATASIZE PUSH1 0x0 REVERT JUMPDEST POP POP POP POP PUSH1 0x1 SWAP1 POP SWAP4 SWAP3 POP POP POP JUMP JUMPDEST PUSH1 0x6 SLOAD DUP2 JUMP JUMPDEST PUSH1 0x1 PUSH1 0x0 SWAP1 SLOAD SWAP1 PUSH2 0x100 EXP SWAP1 DIV PUSH20 0xFFFFFFFFFFFFFFFFFFFFFFFFFFFFFFFFFFFFFFFF AND DUP2 JUMP JUMPDEST PUSH1 0x0 DUP1 PUSH1 0x0 SWAP1 SLOAD SWAP1 PUSH2 0x100 EXP SWAP1 DIV PUSH20 0xFFFFFFFFFFFFFFFFFFFFFFFFFFFFFFFFFFFFFFFF AND PUSH20 0xFFFFFFFFFFFFFFFFFFFFFFFFFFFFFFFFFFFFFFFF AND CALLER PUSH20 0xFFFFFFFFFFFFFFFFFFFFFFFFFFFFFFFFFFFFFFFF AND EQ ISZERO ISZERO PUSH2 0x1C04 JUMPI PUSH1 0x0 DUP1 REVERT JUMPDEST DUP3 PUSH20 0xFFFFFFFFFFFFFFFFFFFFFFFFFFFFFFFFFFFFFFFF AND PUSH4 0xA9059CBB PUSH1 0x0 DUP1 SWAP1 SLOAD SWAP1 PUSH2 0x100 EXP SWAP1 DIV PUSH20 0xFFFFFFFFFFFFFFFFFFFFFFFFFFFFFFFFFFFFFFFF AND DUP5 PUSH1 0x40 MLOAD DUP4 PUSH4 0xFFFFFFFF AND PUSH29 0x100000000000000000000000000000000000000000000000000000000 MUL DUP2 MSTORE PUSH1 0x4 ADD DUP1 DUP4 PUSH20 0xFFFFFFFFFFFFFFFFFFFFFFFFFFFFFFFFFFFFFFFF AND PUSH20 0xFFFFFFFFFFFFFFFFFFFFFFFFFFFFFFFFFFFFFFFF AND DUP2 MSTORE PUSH1 0x20 ADD DUP3 DUP2 MSTORE PUSH1 0x20 ADD SWAP3 POP POP POP PUSH1 0x20 PUSH1 0x40 MLOAD DUP1 DUP4 SUB DUP2 PUSH1 0x0 DUP8 DUP1 EXTCODESIZE ISZERO DUP1 ISZERO PUSH2 0x1CC8 JUMPI PUSH1 0x0 DUP1 REVERT JUMPDEST POP GAS CALL ISZERO DUP1 ISZERO PUSH2 0x1CDC JUMPI RETURNDATASIZE PUSH1 0x0 DUP1 RETURNDATACOPY RETURNDATASIZE PUSH1 0x0 REVERT JUMPDEST POP POP POP POP PUSH1 0x40 MLOAD RETURNDATASIZE PUSH1 0x20 DUP2 LT ISZERO PUSH2 0x1CF2 JUMPI PUSH1 0x0 DUP1 REVERT JUMPDEST DUP2 ADD SWAP1 DUP1 DUP1 MLOAD SWAP1 PUSH1 0x20 ADD SWAP1 SWAP3 SWAP2 SWAP1 POP POP POP SWAP1 POP SWAP3 SWAP2 POP POP JUMP JUMPDEST PUSH1 0x9 SLOAD DUP2 JUMP JUMPDEST PUSH1 0x0 PUSH1 0x16 PUSH1 0x0 DUP5 PUSH20 0xFFFFFFFFFFFFFFFFFFFFFFFFFFFFFFFFFFFFFFFF AND PUSH20 0xFFFFFFFFFFFFFFFFFFFFFFFFFFFFFFFFFFFFFFFF AND DUP2 MSTORE PUSH1 0x20 ADD SWAP1 DUP2 MSTORE PUSH1 0x20 ADD PUSH1 0x0 KECCAK256 PUSH1 0x0 DUP4 PUSH20 0xFFFFFFFFFFFFFFFFFFFFFFFFFFFFFFFFFFFFFFFF AND PUSH20 0xFFFFFFFFFFFFFFFFFFFFFFFFFFFFFFFFFFFFFFFF AND DUP2 MSTORE PUSH1 0x20 ADD SWAP1 DUP2 MSTORE PUSH1 0x20 ADD PUSH1 0x0 KECCAK256 SLOAD SWAP1 POP SWAP3 SWAP2 POP POP JUMP JUMPDEST PUSH1 0x0 DUP1 SWAP1 SLOAD SWAP1 PUSH2 0x100 EXP SWAP1 DIV PUSH20 0xFFFFFFFFFFFFFFFFFFFFFFFFFFFFFFFFFFFFFFFF AND PUSH20 0xFFFFFFFFFFFFFFFFFFFFFFFFFFFFFFFFFFFFFFFF AND CALLER PUSH20 0xFFFFFFFFFFFFFFFFFFFFFFFFFFFFFFFFFFFFFFFF AND EQ ISZERO ISZERO PUSH2 0x1DF3 JUMPI PUSH1 0x0 DUP1 REVERT JUMPDEST DUP1 PUSH1 0x1 PUSH1 0x0 PUSH2 0x100 EXP DUP2 SLOAD DUP2 PUSH20 0xFFFFFFFFFFFFFFFFFFFFFFFFFFFFFFFFFFFFFFFF MUL NOT AND SWAP1 DUP4 PUSH20 0xFFFFFFFFFFFFFFFFFFFFFFFFFFFFFFFFFFFFFFFF AND MUL OR SWAP1 SSTORE POP POP JUMP JUMPDEST PUSH1 0x0 DUP1 DUP3 GT ISZERO ISZERO PUSH2 0x1E47 JUMPI PUSH1 0x0 DUP1 REVERT JUMPDEST DUP2 DUP4 DUP2 ISZERO ISZERO PUSH2 0x1E52 JUMPI INVALID JUMPDEST DIV SWAP1 POP SWAP3 SWAP2 POP POP JUMP JUMPDEST PUSH1 0x0 DUP2 DUP4 ADD SWAP1 POP DUP3 DUP2 LT ISZERO ISZERO ISZERO PUSH2 0x1E71 JUMPI PUSH1 0x0 DUP1 REVERT JUMPDEST SWAP3 SWAP2 POP POP JUMP JUMPDEST PUSH1 0xE SLOAD PUSH2 0x1E96 PUSH2 0x1E85 PUSH2 0x1340 JUMP JUMPDEST PUSH1 0x14 SLOAD PUSH2 0x1E5B SWAP1 SWAP2 SWAP1 PUSH4 0xFFFFFFFF AND JUMP JUMPDEST GT DUP1 ISZERO PUSH2 0x1EA5 JUMPI POP PUSH1 0x27 PUSH1 0xD SLOAD LT JUMPDEST ISZERO PUSH2 0x1EB7 JUMPI PUSH1 0x1 PUSH1 0xD SLOAD ADD PUSH1 0xD DUP2 SWAP1 SSTORE POP JUMPDEST PUSH2 0x1ED4 PUSH1 0x1 PUSH1 0xD SLOAD ADD PUSH1 0x2 EXP PUSH1 0x5 SLOAD PUSH2 0x1E37 SWAP1 SWAP2 SWAP1 PUSH4 0xFFFFFFFF AND JUMP JUMPDEST PUSH1 0x5 SLOAD SUB PUSH1 0xE DUP2 SWAP1 SSTORE POP PUSH2 0x1EF4 PUSH1 0x1 PUSH1 0x7 SLOAD PUSH2 0x1E5B SWAP1 SWAP2 SWAP1 PUSH4 0xFFFFFFFF AND JUMP JUMPDEST PUSH1 0x7 DUP2 SWAP1 SSTORE POP PUSH1 0x0 PUSH1 0x8 SLOAD PUSH1 0x7 SLOAD DUP2 ISZERO ISZERO PUSH2 0x1F0B JUMPI INVALID JUMPDEST MOD EQ ISZERO PUSH2 0x1F1B JUMPI PUSH2 0x1F1A PUSH2 0x1F48 JUMP JUMPDEST JUMPDEST PUSH1 0x1 NUMBER SUB BLOCKHASH PUSH1 0xC DUP2 PUSH1 0x0 NOT AND SWAP1 SSTORE POP JUMP JUMPDEST PUSH1 0x0 DUP3 DUP3 GT ISZERO ISZERO ISZERO PUSH2 0x1F3D JUMPI PUSH1 0x0 DUP1 REVERT JUMPDEST DUP2 DUP4 SUB SWAP1 POP SWAP3 SWAP2 POP POP JUMP JUMPDEST PUSH1 0x0 DUP1 PUSH1 0x0 DUP1 PUSH1 0x0 DUP1 PUSH1 0x0 PUSH1 0x6 SLOAD NUMBER SUB SWAP7 POP PUSH1 0x8 SLOAD SWAP6 POP PUSH1 0xA DUP7 MUL SWAP5 POP DUP5 DUP8 LT ISZERO PUSH2 0x2007 JUMPI PUSH2 0x1F93 DUP8 PUSH2 0x1F85 PUSH1 0x64 DUP9 PUSH2 0x20D9 SWAP1 SWAP2 SWAP1 PUSH4 0xFFFFFFFF AND JUMP JUMPDEST PUSH2 0x1E37 SWAP1 SWAP2 SWAP1 PUSH4 0xFFFFFFFF AND JUMP JUMPDEST SWAP4 POP PUSH2 0x1FBD PUSH2 0x3E8 PUSH2 0x1FAF PUSH1 0x64 DUP8 PUSH2 0x1F2C SWAP1 SWAP2 SWAP1 PUSH4 0xFFFFFFFF AND JUMP JUMPDEST PUSH2 0x210A SWAP1 SWAP2 SWAP1 PUSH4 0xFFFFFFFF AND JUMP JUMPDEST SWAP3 POP PUSH2 0x1FFC PUSH2 0x1FEB DUP5 PUSH2 0x1FDD PUSH2 0x7D0 PUSH1 0xB SLOAD PUSH2 0x1E37 SWAP1 SWAP2 SWAP1 PUSH4 0xFFFFFFFF AND JUMP JUMPDEST PUSH2 0x20D9 SWAP1 SWAP2 SWAP1 PUSH4 0xFFFFFFFF AND JUMP JUMPDEST PUSH1 0xB SLOAD PUSH2 0x1F2C SWAP1 SWAP2 SWAP1 PUSH4 0xFFFFFFFF AND JUMP JUMPDEST PUSH1 0xB DUP2 SWAP1 SSTORE POP PUSH2 0x209D JUMP JUMPDEST PUSH2 0x202D DUP6 PUSH2 0x201F PUSH1 0x64 DUP11 PUSH2 0x20D9 SWAP1 SWAP2 SWAP1 PUSH4 0xFFFFFFFF AND JUMP JUMPDEST PUSH2 0x1E37 SWAP1 SWAP2 SWAP1 PUSH4 0xFFFFFFFF AND JUMP JUMPDEST SWAP2 POP PUSH2 0x2057 PUSH2 0x3E8 PUSH2 0x2049 PUSH1 0x64 DUP6 PUSH2 0x1F2C SWAP1 SWAP2 SWAP1 PUSH4 0xFFFFFFFF AND JUMP JUMPDEST PUSH2 0x210A SWAP1 SWAP2 SWAP1 PUSH4 0xFFFFFFFF AND JUMP JUMPDEST SWAP1 POP PUSH2 0x2096 PUSH2 0x2085 DUP3 PUSH2 0x2077 PUSH2 0x7D0 PUSH1 0xB SLOAD PUSH2 0x1E37 SWAP1 SWAP2 SWAP1 PUSH4 0xFFFFFFFF AND JUMP JUMPDEST PUSH2 0x20D9 SWAP1 SWAP2 SWAP1 PUSH4 0xFFFFFFFF AND JUMP JUMPDEST PUSH1 0xB SLOAD PUSH2 0x1E5B SWAP1 SWAP2 SWAP1 PUSH4 0xFFFFFFFF AND JUMP JUMPDEST PUSH1 0xB DUP2 SWAP1 SSTORE POP JUMPDEST NUMBER PUSH1 0x6 DUP2 SWAP1 SSTORE POP PUSH1 0x9 SLOAD PUSH1 0xB SLOAD LT ISZERO PUSH2 0x20BA JUMPI PUSH1 0x9 SLOAD PUSH1 0xB DUP2 SWAP1 SSTORE POP JUMPDEST PUSH1 0xA SLOAD PUSH1 0xB SLOAD GT ISZERO PUSH2 0x20D0 JUMPI PUSH1 0xA SLOAD PUSH1 0xB DUP2 SWAP1 SSTORE POP JUMPDEST POP POP POP POP POP POP POP JUMP JUMPDEST PUSH1 0x0 DUP2 DUP4 MUL SWAP1 POP PUSH1 0x0 DUP4 EQ DUP1 PUSH2 0x20F9 JUMPI POP DUP2 DUP4 DUP3 DUP2 ISZERO ISZERO PUSH2 0x20F6 JUMPI INVALID JUMPDEST DIV EQ JUMPDEST ISZERO ISZERO PUSH2 0x2104 JUMPI PUSH1 0x0 DUP1 REVERT JUMPDEST SWAP3 SWAP2 POP POP JUMP JUMPDEST PUSH1 0x0 DUP2 DUP4 GT ISZERO PUSH2 0x211C JUMPI DUP2 SWAP1 POP PUSH2 0x2120 JUMP JUMPDEST DUP3 SWAP1 POP JUMPDEST SWAP3 SWAP2 POP POP JUMP STOP LOG1 PUSH6 0x627A7A723058 KECCAK256 0xd0 PUSH16 0x677C0E46363BEC01E5ACF8EC631CDE32 0xda DELEGATECALL 0xf 0x4e 0xdc AND 0xe2 SWAP6 CALLER DUP7 DUP9 0xd1 STATICCALL 0x4f STOP 0x29 "
		},
		"gasEstimates": {
			"creation": {
				"codeDepositCost": "1706000",
				"executionCost": "infinite",
				"totalCost": "infinite"
			},
			"external": {
				"": "861",
				"_BLOCKS_PER_READJUSTMENT()": "988",
				"_MAXIMUM_TARGET()": "834",
				"_MINIMUM_TARGET()": "1120",
				"_totalSupply()": "614",
				"acceptOwnership()": "43570",
				"allowance(address,address)": "1432",
				"approve(address,uint256)": "22353",
				"approveAndCall(address,uint256,bytes)": "infinite",
				"balanceOf(address)": "911",
				"challengeNumber()": "896",
				"checkMintSolution(uint256,bytes32,bytes32,uint256)": "1030",
				"decimals()": "618",
				"epochCount()": "812",
				"getChallengeNumber()": "684",
				"getMiningDifficulty()": "infinite",
				"getMiningReward()": "infinite",
				"getMiningTarget()": "600",
				"getMintDigest(uint256,bytes32,bytes32)": "1100",
				"lastRewardAmount()": "1010",
				"lastRewardEthBlockNumber()": "438",
				"lastRewardTo()": "772",
				"latestDifficultyPeriodStarted()": "1054",
				"maxSupplyForEra()": "680",
				"miningTarget()": "856",
				"mint(uint256,bytes32)": "infinite",
				"name()": "infinite",
				"newOwner()": "1124",
				"owner()": "948",
				"rewardEra()": "548",
				"symbol()": "infinite",
				"tokensMinted()": "702",
				"totalSupply()": "808",
				"transfer(address,uint256)": "infinite",
				"transferAnyERC20Token(address,uint256)": "infinite",
				"transferFrom(address,address,uint256)": "infinite",
				"transferOwnership(address)": "21510"
			},
			"internal": {
				"_reAdjustDifficulty()": "infinite",
				"_startNewMiningEpoch()": "infinite"
			}
		},
		"methodIdentifiers": {
			"_BLOCKS_PER_READJUSTMENT()": "b5ade81b",
			"_MAXIMUM_TARGET()": "87a2a9d6",
			"_MINIMUM_TARGET()": "dc6e9cf9",
			"_totalSupply()": "3eaaf86b",
			"acceptOwnership()": "79ba5097",
			"allowance(address,address)": "dd62ed3e",
			"approve(address,uint256)": "095ea7b3",
			"approveAndCall(address,uint256,bytes)": "cae9ca51",
			"balanceOf(address)": "70a08231",
			"challengeNumber()": "8ae0368b",
			"checkMintSolution(uint256,bytes32,bytes32,uint256)": "81269a56",
			"decimals()": "313ce567",
			"epochCount()": "829965cc",
			"getChallengeNumber()": "4ef37628",
			"getMiningDifficulty()": "17da485f",
			"getMiningReward()": "490203a7",
			"getMiningTarget()": "32e99708",
			"getMintDigest(uint256,bytes32,bytes32)": "97566aa0",
			"lastRewardAmount()": "bafedcaa",
			"lastRewardEthBlockNumber()": "163aa00d",
			"lastRewardTo()": "6fd396d6",
			"latestDifficultyPeriodStarted()": "cb9ae707",
			"maxSupplyForEra()": "4fa972e1",
			"miningTarget()": "8a769d35",
			"mint(uint256,bytes32)": "1801fbe5",
			"name()": "06fdde03",
			"newOwner()": "d4ee1d90",
			"owner()": "8da5cb5b",
			"rewardEra()": "2d38bf7a",
			"symbol()": "95d89b41",
			"tokensMinted()": "6de9f32b",
			"totalSupply()": "18160ddd",
			"transfer(address,uint256)": "a9059cbb",
			"transferAnyERC20Token(address,uint256)": "dc39d06d",
			"transferFrom(address,address,uint256)": "23b872dd",
			"transferOwnership(address)": "f2fde38b"
		}
	},
	"abi": [
		{
			"constant": true,
			"inputs": [],
			"name": "name",
			"outputs": [
				{
					"name": "",
					"type": "string"
				}
			],
			"payable": false,
			"stateMutability": "view",
			"type": "function"
		},
		{
			"constant": false,
			"inputs": [
				{
					"name": "spender",
					"type": "address"
				},
				{
					"name": "tokens",
					"type": "uint256"
				}
			],
			"name": "approve",
			"outputs": [
				{
					"name": "success",
					"type": "bool"
				}
			],
			"payable": false,
			"stateMutability": "nonpayable",
			"type": "function"
		},
		{
			"constant": true,
			"inputs": [],
			"name": "lastRewardEthBlockNumber",
			"outputs": [
				{
					"name": "",
					"type": "uint256"
				}
			],
			"payable": false,
			"stateMutability": "view",
			"type": "function"
		},
		{
			"constant": true,
			"inputs": [],
			"name": "getMiningDifficulty",
			"outputs": [
				{
					"name": "",
					"type": "uint256"
				}
			],
			"payable": false,
			"stateMutability": "view",
			"type": "function"
		},
		{
			"constant": false,
			"inputs": [
				{
					"name": "nonce",
					"type": "uint256"
				},
				{
					"name": "challenge_digest",
					"type": "bytes32"
				}
			],
			"name": "mint",
			"outputs": [
				{
					"name": "success",
					"type": "bool"
				}
			],
			"payable": false,
			"stateMutability": "nonpayable",
			"type": "function"
		},
		{
			"constant": true,
			"inputs": [],
			"name": "totalSupply",
			"outputs": [
				{
					"name": "",
					"type": "uint256"
				}
			],
			"payable": false,
			"stateMutability": "view",
			"type": "function"
		},
		{
			"constant": false,
			"inputs": [
				{
					"name": "from",
					"type": "address"
				},
				{
					"name": "to",
					"type": "address"
				},
				{
					"name": "tokens",
					"type": "uint256"
				}
			],
			"name": "transferFrom",
			"outputs": [
				{
					"name": "success",
					"type": "bool"
				}
			],
			"payable": false,
			"stateMutability": "nonpayable",
			"type": "function"
		},
		{
			"constant": true,
			"inputs": [],
			"name": "rewardEra",
			"outputs": [
				{
					"name": "",
					"type": "uint256"
				}
			],
			"payable": false,
			"stateMutability": "view",
			"type": "function"
		},
		{
			"constant": true,
			"inputs": [],
			"name": "decimals",
			"outputs": [
				{
					"name": "",
					"type": "uint8"
				}
			],
			"payable": false,
			"stateMutability": "view",
			"type": "function"
		},
		{
			"constant": true,
			"inputs": [],
			"name": "getMiningTarget",
			"outputs": [
				{
					"name": "",
					"type": "uint256"
				}
			],
			"payable": false,
			"stateMutability": "view",
			"type": "function"
		},
		{
			"constant": true,
			"inputs": [],
			"name": "_totalSupply",
			"outputs": [
				{
					"name": "",
					"type": "uint256"
				}
			],
			"payable": false,
			"stateMutability": "view",
			"type": "function"
		},
		{
			"constant": true,
			"inputs": [],
			"name": "getMiningReward",
			"outputs": [
				{
					"name": "",
					"type": "uint256"
				}
			],
			"payable": false,
			"stateMutability": "view",
			"type": "function"
		},
		{
			"constant": true,
			"inputs": [],
			"name": "getChallengeNumber",
			"outputs": [
				{
					"name": "",
					"type": "bytes32"
				}
			],
			"payable": false,
			"stateMutability": "view",
			"type": "function"
		},
		{
			"constant": true,
			"inputs": [],
			"name": "maxSupplyForEra",
			"outputs": [
				{
					"name": "",
					"type": "uint256"
				}
			],
			"payable": false,
			"stateMutability": "view",
			"type": "function"
		},
		{
			"constant": true,
			"inputs": [],
			"name": "tokensMinted",
			"outputs": [
				{
					"name": "",
					"type": "uint256"
				}
			],
			"payable": false,
			"stateMutability": "view",
			"type": "function"
		},
		{
			"constant": true,
			"inputs": [],
			"name": "lastRewardTo",
			"outputs": [
				{
					"name": "",
					"type": "address"
				}
			],
			"payable": false,
			"stateMutability": "view",
			"type": "function"
		},
		{
			"constant": true,
			"inputs": [
				{
					"name": "tokenOwner",
					"type": "address"
				}
			],
			"name": "balanceOf",
			"outputs": [
				{
					"name": "balance",
					"type": "uint256"
				}
			],
			"payable": false,
			"stateMutability": "view",
			"type": "function"
		},
		{
			"constant": false,
			"inputs": [],
			"name": "acceptOwnership",
			"outputs": [],
			"payable": false,
			"stateMutability": "nonpayable",
			"type": "function"
		},
		{
			"constant": true,
			"inputs": [
				{
					"name": "nonce",
					"type": "uint256"
				},
				{
					"name": "challenge_digest",
					"type": "bytes32"
				},
				{
					"name": "challenge_number",
					"type": "bytes32"
				},
				{
					"name": "testTarget",
					"type": "uint256"
				}
			],
			"name": "checkMintSolution",
			"outputs": [
				{
					"name": "success",
					"type": "bool"
				}
			],
			"payable": false,
			"stateMutability": "view",
			"type": "function"
		},
		{
			"constant": true,
			"inputs": [],
			"name": "epochCount",
			"outputs": [
				{
					"name": "",
					"type": "uint256"
				}
			],
			"payable": false,
			"stateMutability": "view",
			"type": "function"
		},
		{
			"constant": true,
			"inputs": [],
			"name": "_MAXIMUM_TARGET",
			"outputs": [
				{
					"name": "",
					"type": "uint256"
				}
			],
			"payable": false,
			"stateMutability": "view",
			"type": "function"
		},
		{
			"constant": true,
			"inputs": [],
			"name": "miningTarget",
			"outputs": [
				{
					"name": "",
					"type": "uint256"
				}
			],
			"payable": false,
			"stateMutability": "view",
			"type": "function"
		},
		{
			"constant": true,
			"inputs": [],
			"name": "challengeNumber",
			"outputs": [
				{
					"name": "",
					"type": "bytes32"
				}
			],
			"payable": false,
			"stateMutability": "view",
			"type": "function"
		},
		{
			"constant": true,
			"inputs": [],
			"name": "owner",
			"outputs": [
				{
					"name": "",
					"type": "address"
				}
			],
			"payable": false,
			"stateMutability": "view",
			"type": "function"
		},
		{
			"constant": true,
			"inputs": [],
			"name": "symbol",
			"outputs": [
				{
					"name": "",
					"type": "string"
				}
			],
			"payable": false,
			"stateMutability": "view",
			"type": "function"
		},
		{
			"constant": true,
			"inputs": [
				{
					"name": "nonce",
					"type": "uint256"
				},
				{
					"name": "challenge_digest",
					"type": "bytes32"
				},
				{
					"name": "challenge_number",
					"type": "bytes32"
				}
			],
			"name": "getMintDigest",
			"outputs": [
				{
					"name": "digesttest",
					"type": "bytes32"
				}
			],
			"payable": false,
			"stateMutability": "view",
			"type": "function"
		},
		{
			"constant": false,
			"inputs": [
				{
					"name": "to",
					"type": "address"
				},
				{
					"name": "tokens",
					"type": "uint256"
				}
			],
			"name": "transfer",
			"outputs": [
				{
					"name": "success",
					"type": "bool"
				}
			],
			"payable": false,
			"stateMutability": "nonpayable",
			"type": "function"
		},
		{
			"constant": true,
			"inputs": [],
			"name": "_BLOCKS_PER_READJUSTMENT",
			"outputs": [
				{
					"name": "",
					"type": "uint256"
				}
			],
			"payable": false,
			"stateMutability": "view",
			"type": "function"
		},
		{
			"constant": true,
			"inputs": [],
			"name": "lastRewardAmount",
			"outputs": [
				{
					"name": "",
					"type": "uint256"
				}
			],
			"payable": false,
			"stateMutability": "view",
			"type": "function"
		},
		{
			"constant": false,
			"inputs": [
				{
					"name": "spender",
					"type": "address"
				},
				{
					"name": "tokens",
					"type": "uint256"
				},
				{
					"name": "data",
					"type": "bytes"
				}
			],
			"name": "approveAndCall",
			"outputs": [
				{
					"name": "success",
					"type": "bool"
				}
			],
			"payable": false,
			"stateMutability": "nonpayable",
			"type": "function"
		},
		{
			"constant": true,
			"inputs": [],
			"name": "latestDifficultyPeriodStarted",
			"outputs": [
				{
					"name": "",
					"type": "uint256"
				}
			],
			"payable": false,
			"stateMutability": "view",
			"type": "function"
		},
		{
			"constant": true,
			"inputs": [],
			"name": "newOwner",
			"outputs": [
				{
					"name": "",
					"type": "address"
				}
			],
			"payable": false,
			"stateMutability": "view",
			"type": "function"
		},
		{
			"constant": false,
			"inputs": [
				{
					"name": "tokenAddress",
					"type": "address"
				},
				{
					"name": "tokens",
					"type": "uint256"
				}
			],
			"name": "transferAnyERC20Token",
			"outputs": [
				{
					"name": "success",
					"type": "bool"
				}
			],
			"payable": false,
			"stateMutability": "nonpayable",
			"type": "function"
		},
		{
			"constant": true,
			"inputs": [],
			"name": "_MINIMUM_TARGET",
			"outputs": [
				{
					"name": "",
					"type": "uint256"
				}
			],
			"payable": false,
			"stateMutability": "view",
			"type": "function"
		},
		{
			"constant": true,
			"inputs": [
				{
					"name": "tokenOwner",
					"type": "address"
				},
				{
					"name": "spender",
					"type": "address"
				}
			],
			"name": "allowance",
			"outputs": [
				{
					"name": "remaining",
					"type": "uint256"
				}
			],
			"payable": false,
			"stateMutability": "view",
			"type": "function"
		},
		{
			"constant": false,
			"inputs": [
				{
					"name": "_newOwner",
					"type": "address"
				}
			],
			"name": "transferOwnership",
			"outputs": [],
			"payable": false,
			"stateMutability": "nonpayable",
			"type": "function"
		},
		{
			"inputs": [],
			"payable": false,
			"stateMutability": "nonpayable",
			"type": "constructor"
		},
		{
			"payable": true,
			"stateMutability": "payable",
			"type": "fallback"
		},
		{
			"anonymous": false,
			"inputs": [
				{
					"indexed": true,
					"name": "from",
					"type": "address"
				},
				{
					"indexed": false,
					"name": "reward_amount",
					"type": "uint256"
				},
				{
					"indexed": false,
					"name": "epochCount",
					"type": "uint256"
				},
				{
					"indexed": false,
					"name": "newChallengeNumber",
					"type": "bytes32"
				}
			],
			"name": "Mint",
			"type": "event"
		},
		{
			"anonymous": false,
			"inputs": [
				{
					"indexed": true,
					"name": "_from",
					"type": "address"
				},
				{
					"indexed": true,
					"name": "_to",
					"type": "address"
				}
			],
			"name": "OwnershipTransferred",
			"type": "event"
		},
		{
			"anonymous": false,
			"inputs": [
				{
					"indexed": true,
					"name": "from",
					"type": "address"
				},
				{
					"indexed": true,
					"name": "to",
					"type": "address"
				},
				{
					"indexed": false,
					"name": "tokens",
					"type": "uint256"
				}
			],
			"name": "Transfer",
			"type": "event"
		},
		{
			"anonymous": false,
			"inputs": [
				{
					"indexed": true,
					"name": "tokenOwner",
					"type": "address"
				},
				{
					"indexed": true,
					"name": "spender",
					"type": "address"
				},
				{
					"indexed": false,
					"name": "tokens",
					"type": "uint256"
				}
			],
			"name": "Approval",
			"type": "event"
		}
	]
}